{
  "_format": "hh-sol-artifact-1",
  "contractName": "DisputeResolver",
  "sourceName": "contracts/DisputeResolver.sol",
  "abi": [
    {
      "inputs": [
        {
          "internalType": "address",
          "name": "_jobManagerAddress",
          "type": "address"
        },
        {
          "internalType": "address",
          "name": "_registryAddress",
          "type": "address"
        }
      ],
      "stateMutability": "nonpayable",
      "type": "constructor"
    },
    {
      "anonymous": false,
      "inputs": [
        {
          "indexed": true,
          "internalType": "uint256",
          "name": "disputeId",
          "type": "uint256"
        },
        {
          "indexed": true,
          "internalType": "address",
          "name": "appellant",
          "type": "address"
        }
      ],
      "name": "DisputeAppealed",
      "type": "event"
    },
    {
      "anonymous": false,
      "inputs": [
        {
          "indexed": true,
          "internalType": "uint256",
          "name": "disputeId",
          "type": "uint256"
        },
        {
          "indexed": true,
          "internalType": "address",
          "name": "arbitrator",
          "type": "address"
        }
      ],
      "name": "DisputeAssigned",
      "type": "event"
    },
    {
      "anonymous": false,
      "inputs": [
        {
          "indexed": true,
          "internalType": "uint256",
          "name": "disputeId",
          "type": "uint256"
        },
        {
          "indexed": true,
          "internalType": "uint256",
          "name": "jobId",
          "type": "uint256"
        },
        {
          "indexed": true,
          "internalType": "address",
          "name": "initiator",
          "type": "address"
        },
        {
          "indexed": false,
          "internalType": "address",
          "name": "other",
          "type": "address"
        }
      ],
      "name": "DisputeCreated",
      "type": "event"
    },
    {
      "anonymous": false,
      "inputs": [
        {
          "indexed": true,
          "internalType": "uint256",
          "name": "disputeId",
          "type": "uint256"
        },
        {
          "indexed": false,
          "internalType": "enum DisputeResolver.Resolution",
          "name": "resolution",
          "type": "uint8"
        },
        {
          "indexed": true,
          "internalType": "address",
          "name": "resolver",
          "type": "address"
        }
      ],
      "name": "DisputeResolved",
      "type": "event"
    },
    {
      "anonymous": false,
      "inputs": [
        {
          "indexed": true,
          "internalType": "uint256",
          "name": "disputeId",
          "type": "uint256"
        },
        {
          "indexed": true,
          "internalType": "address",
          "name": "submitter",
          "type": "address"
        },
        {
          "indexed": false,
          "internalType": "string",
          "name": "evidenceURI",
          "type": "string"
        }
      ],
      "name": "EvidenceSubmitted",
      "type": "event"
    },
    {
      "anonymous": false,
      "inputs": [
        {
          "indexed": false,
          "internalType": "address",
          "name": "account",
          "type": "address"
        }
      ],
      "name": "Paused",
      "type": "event"
    },
    {
      "anonymous": false,
      "inputs": [
        {
          "indexed": true,
          "internalType": "bytes32",
          "name": "role",
          "type": "bytes32"
        },
        {
          "indexed": true,
          "internalType": "bytes32",
          "name": "previousAdminRole",
          "type": "bytes32"
        },
        {
          "indexed": true,
          "internalType": "bytes32",
          "name": "newAdminRole",
          "type": "bytes32"
        }
      ],
      "name": "RoleAdminChanged",
      "type": "event"
    },
    {
      "anonymous": false,
      "inputs": [
        {
          "indexed": true,
          "internalType": "bytes32",
          "name": "role",
          "type": "bytes32"
        },
        {
          "indexed": true,
          "internalType": "address",
          "name": "account",
          "type": "address"
        },
        {
          "indexed": true,
          "internalType": "address",
          "name": "sender",
          "type": "address"
        }
      ],
      "name": "RoleGranted",
      "type": "event"
    },
    {
      "anonymous": false,
      "inputs": [
        {
          "indexed": true,
          "internalType": "bytes32",
          "name": "role",
          "type": "bytes32"
        },
        {
          "indexed": true,
          "internalType": "address",
          "name": "account",
          "type": "address"
        },
        {
          "indexed": true,
          "internalType": "address",
          "name": "sender",
          "type": "address"
        }
      ],
      "name": "RoleRevoked",
      "type": "event"
    },
    {
      "anonymous": false,
      "inputs": [
        {
          "indexed": false,
          "internalType": "address",
          "name": "account",
          "type": "address"
        }
      ],
      "name": "Unpaused",
      "type": "event"
    },
    {
      "inputs": [],
      "name": "ADMIN_ROLE",
      "outputs": [
        {
          "internalType": "bytes32",
          "name": "",
          "type": "bytes32"
        }
      ],
      "stateMutability": "view",
      "type": "function"
    },
    {
      "inputs": [],
      "name": "ARBITRATOR_ROLE",
      "outputs": [
        {
          "internalType": "bytes32",
          "name": "",
          "type": "bytes32"
        }
      ],
      "stateMutability": "view",
      "type": "function"
    },
    {
      "inputs": [],
      "name": "DEFAULT_ADMIN_ROLE",
      "outputs": [
        {
          "internalType": "bytes32",
          "name": "",
          "type": "bytes32"
        }
      ],
      "stateMutability": "view",
      "type": "function"
    },
    {
      "inputs": [
        {
          "internalType": "address",
          "name": "_arbitrator",
          "type": "address"
        }
      ],
      "name": "addArbitrator",
      "outputs": [],
      "stateMutability": "nonpayable",
      "type": "function"
    },
    {
      "inputs": [
        {
          "internalType": "uint256",
          "name": "_disputeId",
          "type": "uint256"
        },
        {
          "internalType": "string",
          "name": "_appealReason",
          "type": "string"
        }
      ],
      "name": "appealDispute",
      "outputs": [],
      "stateMutability": "nonpayable",
      "type": "function"
    },
    {
      "inputs": [
        {
          "internalType": "address",
          "name": "",
          "type": "address"
        }
      ],
      "name": "arbitratorActiveDisputes",
      "outputs": [
        {
          "internalType": "uint256",
          "name": "",
          "type": "uint256"
        }
      ],
      "stateMutability": "view",
      "type": "function"
    },
    {
      "inputs": [
        {
          "internalType": "address",
          "name": "",
          "type": "address"
        },
        {
          "internalType": "uint256",
          "name": "",
          "type": "uint256"
        }
      ],
      "name": "arbitratorDisputes",
      "outputs": [
        {
          "internalType": "uint256",
          "name": "",
          "type": "uint256"
        }
      ],
      "stateMutability": "view",
      "type": "function"
    },
    {
      "inputs": [
        {
          "internalType": "uint256",
          "name": "_disputeId",
          "type": "uint256"
        },
        {
          "internalType": "address",
          "name": "_arbitrator",
          "type": "address"
        }
      ],
      "name": "assignArbitrator",
      "outputs": [],
      "stateMutability": "nonpayable",
      "type": "function"
    },
    {
      "inputs": [
        {
          "internalType": "uint256",
          "name": "_disputeId",
          "type": "uint256"
        }
      ],
      "name": "closeDispute",
      "outputs": [],
      "stateMutability": "nonpayable",
      "type": "function"
    },
    {
      "inputs": [
        {
          "internalType": "uint256",
          "name": "_jobId",
          "type": "uint256"
        },
        {
          "internalType": "uint256",
          "name": "_escrowId",
          "type": "uint256"
        },
        {
          "internalType": "string",
          "name": "_reason",
          "type": "string"
        },
        {
          "internalType": "string",
          "name": "_evidenceURI",
          "type": "string"
        }
      ],
      "name": "createDispute",
      "outputs": [
        {
          "internalType": "uint256",
          "name": "",
          "type": "uint256"
        }
      ],
      "stateMutability": "nonpayable",
      "type": "function"
    },
    {
      "inputs": [
        {
          "internalType": "uint256",
          "name": "",
          "type": "uint256"
        },
        {
          "internalType": "uint256",
          "name": "",
          "type": "uint256"
        }
      ],
      "name": "disputeEvidences",
      "outputs": [
        {
          "internalType": "uint256",
          "name": "disputeId",
          "type": "uint256"
        },
        {
          "internalType": "address",
          "name": "submitter",
          "type": "address"
        },
        {
          "internalType": "string",
          "name": "evidenceURI",
          "type": "string"
        },
        {
          "internalType": "uint256",
          "name": "timestamp",
          "type": "uint256"
        },
        {
          "internalType": "string",
          "name": "description",
          "type": "string"
        }
      ],
      "stateMutability": "view",
      "type": "function"
    },
    {
      "inputs": [],
      "name": "disputeTimeout",
      "outputs": [
        {
          "internalType": "uint256",
          "name": "",
          "type": "uint256"
        }
      ],
      "stateMutability": "view",
      "type": "function"
    },
    {
      "inputs": [
        {
          "internalType": "uint256",
          "name": "",
          "type": "uint256"
        }
      ],
      "name": "disputes",
      "outputs": [
        {
          "internalType": "uint256",
          "name": "id",
          "type": "uint256"
        },
        {
          "internalType": "uint256",
          "name": "jobId",
          "type": "uint256"
        },
        {
          "internalType": "uint256",
          "name": "escrowId",
          "type": "uint256"
        },
        {
          "internalType": "address",
          "name": "client",
          "type": "address"
        },
        {
          "internalType": "address",
          "name": "freelancer",
          "type": "address"
        },
        {
          "internalType": "address",
          "name": "initiator",
          "type": "address"
        },
        {
          "internalType": "string",
          "name": "reason",
          "type": "string"
        },
        {
          "internalType": "string",
          "name": "evidenceURI",
          "type": "string"
        },
        {
          "internalType": "enum DisputeResolver.DisputeStatus",
          "name": "status",
          "type": "uint8"
        },
        {
          "internalType": "enum DisputeResolver.Resolution",
          "name": "resolution",
          "type": "uint8"
        },
        {
          "internalType": "address",
          "name": "assignedArbitrator",
          "type": "address"
        },
        {
          "internalType": "uint256",
          "name": "createdAt",
          "type": "uint256"
        },
        {
          "internalType": "uint256",
          "name": "resolvedAt",
          "type": "uint256"
        },
        {
          "internalType": "uint256",
          "name": "refundPercentage",
          "type": "uint256"
        },
        {
          "internalType": "string",
          "name": "resolutionNote",
          "type": "string"
        }
      ],
      "stateMutability": "view",
      "type": "function"
    },
    {
      "inputs": [
        {
          "internalType": "uint256",
          "name": "",
          "type": "uint256"
        }
      ],
      "name": "escrowDisputes",
      "outputs": [
        {
          "internalType": "uint256",
          "name": "",
          "type": "uint256"
        }
      ],
      "stateMutability": "view",
      "type": "function"
    },
    {
      "inputs": [
        {
          "internalType": "address",
          "name": "_arbitrator",
          "type": "address"
        }
      ],
      "name": "getArbitratorDisputes",
      "outputs": [
        {
          "internalType": "uint256[]",
          "name": "",
          "type": "uint256[]"
        }
      ],
      "stateMutability": "view",
      "type": "function"
    },
    {
      "inputs": [
        {
          "internalType": "uint256",
          "name": "_disputeId",
          "type": "uint256"
        }
      ],
      "name": "getDispute",
      "outputs": [
        {
          "components": [
            {
              "internalType": "uint256",
              "name": "id",
              "type": "uint256"
            },
            {
              "internalType": "uint256",
              "name": "jobId",
              "type": "uint256"
            },
            {
              "internalType": "uint256",
              "name": "escrowId",
              "type": "uint256"
            },
            {
              "internalType": "address",
              "name": "client",
              "type": "address"
            },
            {
              "internalType": "address",
              "name": "freelancer",
              "type": "address"
            },
            {
              "internalType": "address",
              "name": "initiator",
              "type": "address"
            },
            {
              "internalType": "string",
              "name": "reason",
              "type": "string"
            },
            {
              "internalType": "string",
              "name": "evidenceURI",
              "type": "string"
            },
            {
              "internalType": "enum DisputeResolver.DisputeStatus",
              "name": "status",
              "type": "uint8"
            },
            {
              "internalType": "enum DisputeResolver.Resolution",
              "name": "resolution",
              "type": "uint8"
            },
            {
              "internalType": "address",
              "name": "assignedArbitrator",
              "type": "address"
            },
            {
              "internalType": "uint256",
              "name": "createdAt",
              "type": "uint256"
            },
            {
              "internalType": "uint256",
              "name": "resolvedAt",
              "type": "uint256"
            },
            {
              "internalType": "uint256",
              "name": "refundPercentage",
              "type": "uint256"
            },
            {
              "internalType": "string",
              "name": "resolutionNote",
              "type": "string"
            }
          ],
          "internalType": "struct DisputeResolver.Dispute",
          "name": "",
          "type": "tuple"
        }
      ],
      "stateMutability": "view",
      "type": "function"
    },
    {
      "inputs": [
        {
          "internalType": "uint256",
          "name": "_disputeId",
          "type": "uint256"
        }
      ],
      "name": "getDisputeEvidence",
      "outputs": [
        {
          "components": [
            {
              "internalType": "uint256",
              "name": "disputeId",
              "type": "uint256"
            },
            {
              "internalType": "address",
              "name": "submitter",
              "type": "address"
            },
            {
              "internalType": "string",
              "name": "evidenceURI",
              "type": "string"
            },
            {
              "internalType": "uint256",
              "name": "timestamp",
              "type": "uint256"
            },
            {
              "internalType": "string",
              "name": "description",
              "type": "string"
            }
          ],
          "internalType": "struct DisputeResolver.Evidence[]",
          "name": "",
          "type": "tuple[]"
        }
      ],
      "stateMutability": "view",
      "type": "function"
    },
    {
      "inputs": [
        {
          "internalType": "uint256",
          "name": "_jobId",
          "type": "uint256"
        }
      ],
      "name": "getJobDispute",
      "outputs": [
        {
          "internalType": "uint256",
          "name": "",
          "type": "uint256"
        }
      ],
      "stateMutability": "view",
      "type": "function"
    },
    {
      "inputs": [
        {
          "internalType": "bytes32",
          "name": "role",
          "type": "bytes32"
        }
      ],
      "name": "getRoleAdmin",
      "outputs": [
        {
          "internalType": "bytes32",
          "name": "",
          "type": "bytes32"
        }
      ],
      "stateMutability": "view",
      "type": "function"
    },
    {
      "inputs": [
        {
          "internalType": "bytes32",
          "name": "role",
          "type": "bytes32"
        },
        {
          "internalType": "address",
          "name": "account",
          "type": "address"
        }
      ],
      "name": "grantRole",
      "outputs": [],
      "stateMutability": "nonpayable",
      "type": "function"
    },
    {
      "inputs": [
        {
          "internalType": "bytes32",
          "name": "role",
          "type": "bytes32"
        },
        {
          "internalType": "address",
          "name": "account",
          "type": "address"
        }
      ],
      "name": "hasRole",
      "outputs": [
        {
          "internalType": "bool",
          "name": "",
          "type": "bool"
        }
      ],
      "stateMutability": "view",
      "type": "function"
    },
    {
      "inputs": [
        {
          "internalType": "uint256",
          "name": "",
          "type": "uint256"
        }
      ],
      "name": "jobDisputes",
      "outputs": [
        {
          "internalType": "uint256",
          "name": "",
          "type": "uint256"
        }
      ],
      "stateMutability": "view",
      "type": "function"
    },
    {
      "inputs": [],
      "name": "jobManager",
      "outputs": [
        {
          "internalType": "contract IJobManager",
          "name": "",
          "type": "address"
        }
      ],
      "stateMutability": "view",
      "type": "function"
    },
    {
      "inputs": [],
      "name": "maxActiveDisputesPerArbitrator",
      "outputs": [
        {
          "internalType": "uint256",
          "name": "",
          "type": "uint256"
        }
      ],
      "stateMutability": "view",
      "type": "function"
    },
    {
      "inputs": [],
      "name": "pause",
      "outputs": [],
      "stateMutability": "nonpayable",
      "type": "function"
    },
    {
      "inputs": [],
      "name": "paused",
      "outputs": [
        {
          "internalType": "bool",
          "name": "",
          "type": "bool"
        }
      ],
      "stateMutability": "view",
      "type": "function"
    },
    {
      "inputs": [],
      "name": "registry",
      "outputs": [
        {
          "internalType": "contract ISafeGigRegistry",
          "name": "",
          "type": "address"
        }
      ],
      "stateMutability": "view",
      "type": "function"
    },
    {
      "inputs": [
        {
          "internalType": "address",
          "name": "_arbitrator",
          "type": "address"
        }
      ],
      "name": "removeArbitrator",
      "outputs": [],
      "stateMutability": "nonpayable",
      "type": "function"
    },
    {
      "inputs": [
        {
          "internalType": "bytes32",
          "name": "role",
          "type": "bytes32"
        },
        {
          "internalType": "address",
          "name": "account",
          "type": "address"
        }
      ],
      "name": "renounceRole",
      "outputs": [],
      "stateMutability": "nonpayable",
      "type": "function"
    },
    {
      "inputs": [
        {
          "internalType": "uint256",
          "name": "_disputeId",
          "type": "uint256"
        },
        {
          "internalType": "enum DisputeResolver.Resolution",
          "name": "_resolution",
          "type": "uint8"
        },
        {
          "internalType": "uint256",
          "name": "_refundPercentage",
          "type": "uint256"
        },
        {
          "internalType": "string",
          "name": "_resolutionNote",
          "type": "string"
        }
      ],
      "name": "resolveDispute",
      "outputs": [],
      "stateMutability": "nonpayable",
      "type": "function"
    },
    {
      "inputs": [
        {
          "internalType": "bytes32",
          "name": "role",
          "type": "bytes32"
        },
        {
          "internalType": "address",
          "name": "account",
          "type": "address"
        }
      ],
      "name": "revokeRole",
      "outputs": [],
      "stateMutability": "nonpayable",
      "type": "function"
    },
    {
      "inputs": [
        {
          "internalType": "uint256",
          "name": "_timeout",
          "type": "uint256"
        }
      ],
      "name": "setDisputeTimeout",
      "outputs": [],
      "stateMutability": "nonpayable",
      "type": "function"
    },
    {
      "inputs": [
        {
          "internalType": "uint256",
          "name": "_max",
          "type": "uint256"
        }
      ],
      "name": "setMaxActiveDisputes",
      "outputs": [],
      "stateMutability": "nonpayable",
      "type": "function"
    },
    {
      "inputs": [
        {
          "internalType": "uint256",
          "name": "_disputeId",
          "type": "uint256"
        },
        {
          "internalType": "string",
          "name": "_evidenceURI",
          "type": "string"
        },
        {
          "internalType": "string",
          "name": "_description",
          "type": "string"
        }
      ],
      "name": "submitEvidence",
      "outputs": [],
      "stateMutability": "nonpayable",
      "type": "function"
    },
    {
      "inputs": [
        {
          "internalType": "bytes4",
          "name": "interfaceId",
          "type": "bytes4"
        }
      ],
      "name": "supportsInterface",
      "outputs": [
        {
          "internalType": "bool",
          "name": "",
          "type": "bool"
        }
      ],
      "stateMutability": "view",
      "type": "function"
    },
    {
      "inputs": [],
      "name": "unpause",
      "outputs": [],
      "stateMutability": "nonpayable",
      "type": "function"
    }
  ],
  "bytecode": "0x6080346200017e57620030e290601f38839003908101601f19168201906001600160401b038211838310176200018357808391604095869485528339810103126200017e576200004f8162000199565b6200005e602080930162000199565b9060ff1991826001541660015560016002556005600d5562127500600e5560018060a01b03908160018060a01b0319931683600354161760035516906004541617600455600090818052818352838220338352835260ff84832054161562000148575b7fa49807205ce4d355092ef5a8a18f56e8913cf4a201fbe287825b095693c2177592838352828152848320338452815260ff8584205416156200010e575b8451612f139081620001af8239f35b83835282815284832090338452526001848320918254161790553391600080516020620030c2833981519152339280a438808080620000ff565b8180528183528382203383528352838220600182825416179055333383600080516020620030c28339815191528180a4620000c1565b600080fd5b634e487b7160e01b600052604160045260246000fd5b51906001600160a01b03821682036200017e5756fe6080604052600436101561001257600080fd5b60003560e01c806301fabd75146122fb57806301ffc9a7146122a557806303e2edb814612287578063248a9ca314612258578063260eb725146120125780632a8e366114611d415780632f2ff15d14611c8e5780633172262c14611bda57806334dbdbb714611bb957806336568abe14611b275780633df395a314611afe5780633f4ba83a14611a6a5780634edfc62f1461143557806353f4c1dc14611876578063564a565d1461174a5780635c975abb146117275780636abcd85d146115bd57806375b238fc146115825780637b103999146115595780638456cb59146115005780638cf6e09d146114615780638db275491461143557806391d14854146113e8578063973ad2701461132a5780639bf22ffc14610a265780639cea0787146109fd578063a217fddf146109e1578063a46fb42514610989578063b15871b31461095d578063c04c22a41461093f578063d547741f146108fe578063d6a145e2146108c4578063e1231d501461084d578063e3a96cbd146105bc578063f257aa57146105805763f65a1696146101a857600080fd5b3461057b57608036600319011261057b5760248035600435600582101561057b576001600160401b036044356064803583811161057b576101ed90369060040161245c565b958460005260209360078552604060002092600884019384549560018060a01b039633888260101c16148015610539575b156104e75760ff1692610230846125da565b60018094036104ae576102428b6125da565b8a1561046d576102518b6125da565b60038b14610417575b5090600c916102698b88612afc565b600260ff1988541617875542600a830155600b82015501928951928311610403575061029583546124b2565b601f81116103ba575b508598601f83116001146103375782917fd479d35c2c3aee3d59f9972a1214f8effa0c54c4f8ff4dcf020913c0a5e27c6298999a839260009461032c575b50501b916000199060031b1c19161790555b5460101c168061030e575b5060405193610307816125da565b84523393a3005b600052600c8152604060002061032481546129e2565b9055386102f9565b0151925038806102dc565b601f9291921982169984600052876000209160005b8c81106103a55750837fd479d35c2c3aee3d59f9972a1214f8effa0c54c4f8ff4dcf020913c0a5e27c629a9b9c1061038c575b505050811b0190556102ee565b015160001960f88460031b161c1916905538808061037f565b8183015184559285019291890191890161034c565b8360005286600020601f840160051c8101918885106103f9575b601f0160051c019082905b8281106103ed57505061029e565b600081550182906103df565b90915081906103d4565b634e487b7160e01b60009081526041600452fd5b8082111561025a57886203130360ec1b6084926023896040519462461bcd60e51b865260048601528401527f526566756e642070657263656e746167652063616e6e6f7420657863656564206044840152820152fd5b60405162461bcd60e51b8152600481018a90526019818801527f4d75737420737065636966792061207265736f6c7574696f6e000000000000006044820152fd5b60405162461bcd60e51b8152600481018a90526015818801527444697370757465206e6f7420696e2072657669657760581b6044820152fd5b60405162461bcd60e51b8152600481018a90526026818801527f4e6f7420617574686f72697a656420746f207265736f6c76652074686973206460448201526569737075746560d01b81860152608490fd5b507fa49807205ce4d355092ef5a8a18f56e8913cf4a201fbe287825b095693c2177560005260008952604060002033600052895260ff6040600020541661021e565b600080fd5b3461057b57602036600319011261057b57610599612644565b60043560005260076020526008604060002001600460ff19825416179055600080f35b3461057b57602036600319011261057b5760606101c06040516105de816123e9565b60008152600060208201526000604082015260008382015260006080820152600060a08201528260c08201528260e08201526000610100820152600061012082015260006101408201526000610160820152600061018082015260006101a082015201526004356000526007602052610849604060002061073b600c60405192610667846123e9565b80548452600181015460208501526002810154604085015260038101546001600160a01b03908116606086015260048201548116608086015260058201541660a08501526106b7600682016124ec565b60c08501526106c8600782016124ec565b60e0850152600881015460ff81166106df816125da565b6101008601526106f460ff8260081c166125da565b600881901c60ff1661012086015260101c6001600160a01b03166101408501526009810154610160850152600a810154610180850152600b8101546101a0850152016124ec565b6101c08201526040519182916020835280516020840152602081015160408401526040810151606084015260018060a01b03606082015116608084015260018060a01b0360808201511660a084015260018060a01b0360a08201511660c08401526101c06107d46107bd60c08401516101e060e08801526102008701906125b5565b60e0840151868203601f19016101008801526125b5565b916101008101516107e4816125da565b6101208601526101208101516107f9816125da565b61014086015260018060a01b03610140820151166101608601526101608101516101808601526101808101516101a08601526101a0810151828601520151601f19848303016101e08501526125b5565b0390f35b3461057b57602036600319011261057b57600435610869612644565b62015180811015806108b7575b1561088057600e55005b60405162461bcd60e51b815260206004820152600f60248201526e125b9d985b1a59081d1a5b595bdd5d608a1b6044820152606490fd5b5062278d00811115610876565b3461057b57602036600319011261057b576001600160a01b036108e56123bd565b16600052600c6020526020604060002054604051908152f35b3461057b57604036600319011261057b5761093d60043561091d6123d3565b9080600052600060205261093860016040600020015461285e565b61295d565b005b3461057b57600036600319011261057b576020600e54604051908152f35b3461057b57602036600319011261057b5760043560005260096020526020604060002054604051908152f35b3461057b57604036600319011261057b576109a26123bd565b6001600160a01b03166000908152600b602052604090208054602435919082101561057b576020916109d39161262c565b90546040519160031b1c8152f35b3461057b57600036600319011261057b57602060405160008152f35b3461057b57600036600319011261057b576020604051600080516020612ebe8339815191528152f35b3461057b57608036600319011261057b576044356001600160401b03811161057b57610a5690369060040161245c565b6064356001600160401b03811161057b57610a7590369060040161245c565b90610a7e612b1b565b60028054146112e557600280558051156112ae57600435600052600860205260406000205461125d576003546040516326561ae360e11b8152600480359082015290608090829060249082906001600160a01b03165afa918215611251576000906000926000946111f4575b50336001600160a01b03831614938480156111e2575b156111875760ff600291161061114357600554936001850160055560001461113c57825b60405192610b31846123e9565b8584526004356020850152602435604085015260018060a01b0316606084015260018060a01b031660808301523360a083015260c08201528360e082015260006101008201526000610120820152600061014082015242610160820152600061018082015260006101a08201526040518060208101106001600160401b03602083011117610eb75760208101604052600081526101c08201528260005260076020526040600020908051825560208101516001830155604081015160028301556003820160018060a01b03606083015116906bffffffffffffffffffffffff60a01b91828254161790556004830160018060a01b0360808401511682825416179055600583019060018060a01b0360a0840151169082541617905560c08101518051906001600160401b038211610eb7578190610c7160068601546124b2565b601f81116110e9575b50602090601f83116001146110775760009261106c575b50508160011b916000199060031b1c19161760068301555b60e08101518051906001600160401b038211610eb757610ccc60078501546124b2565b601f8111611025575b50602090601f8311600114610fb1576101c093929160009183610fa6575b50508160011b916000199060031b1c19161760078401555b610d7860088401610100830151610d21816125da565b610d2a816125da565b60ff80198354169116178155610d4e610120840151610d48816125da565b82612afc565b610140830151815462010000600160b01b03191660109190911b62010000600160b01b0316179055565b6101608101516009840155610180810151600a8401556101a0810151600b84015501518051906001600160401b038211610eb757610db9600c8401546124b2565b601f8111610f5f575b50602090601f8311600114610eef57600c929160009183610ee4575b50508160011b916000199060031b1c1916179101555b600435600052600860205281604060002055602435610ecd575b8251610e5e575b602092506040519060018060a01b031681523390827f1efc064a20015d5f957c4c8acb473eb1d3c0ce8e0f48ea8f1b8c4797b36097868560043593a46001600255604051908152f35b60405160408101908082106001600160401b03831117610eb757602094610eb292604052601882527f496e697469616c20646973707574652065766964656e63650000000000000000868301523385612b5f565b610e15565b634e487b7160e01b600052604160045260246000fd5b602435600052600960205281604060002055610e0e565b015190508780610dde565b90600c840160005260206000209160005b601f1985168110610f475750918391600193600c95601f19811610610f2e575b505050811b01910155610df4565b015160001960f88460031b161c19169055878080610f20565b91926020600181928685015181550194019201610f00565b600c84016000526020600020601f840160051c810160208510610f9f575b601f830160051c82018110610f93575050610dc2565b60008155600101610f7d565b5080610f7d565b015190508880610cf3565b906007850160005260206000209160005b601f198516811061100d57509183916001936101c09695601f19811610610ff4575b505050811b016007840155610d0b565b015160001960f88460031b161c19169055888080610fe4565b91926020600181928685015181550194019201610fc2565b600785016000526020600020601f840160051c810160208510611065575b601f830160051c82018110611059575050610cd5565b60008155600101611043565b5080611043565b015190508780610c91565b9250600685016000526020600020906000935b601f19841685106110ce576001945083601f198116106110b5575b505050811b016006830155610ca9565b015160001960f88460031b161c191690558780806110a5565b8181015183556020948501946001909301929091019061108a565b909150600685016000526020600020601f840160051c810160208510611135575b90849392915b601f830160051c82018110611126575050610c7a565b60008155859450600101611110565b508061110a565b8192610b24565b606460405162461bcd60e51b815260206004820152602060248201527f4a6f62206d75737420626520696e2070726f6772657373206f72206c617465726044820152fd5b60405162461bcd60e51b815260206004820152602d60248201527f4e6f7420617574686f72697a656420746f20637265617465206469737075746560448201526c103337b9103a3434b9903537b160991b6064820152608490fd5b50336001600160a01b03851614610b00565b92509250506080813d608011611249575b816112126080938361243b565b8101031261057b5761122381612ae8565b90606061123260208301612ae8565b9101519160ff8316830361057b5790919285610aea565b3d9150611205565b6040513d6000823e3d90fd5b60405162461bcd60e51b815260206004820152602360248201527f4469737075746520616c72656164792065786973747320666f722074686973206044820152623537b160e91b6064820152608490fd5b60405162461bcd60e51b815260206004820152600f60248201526e1499585cdbdb881c995c5d5a5c9959608a1b6044820152606490fd5b60405162461bcd60e51b815260206004820152601f60248201527f5265656e7472616e637947756172643a207265656e7472616e742063616c6c006044820152606490fd5b3461057b5760208060031936011261057b576113446123bd565b61134c612644565b600080516020612ebe83398151915291826000526000815261137560016040600020015461285e565b600083815280825260408082206001600160a01b0390941680835293835290205460ff1661139f57005b82600052600081526040600020908260005252604060002060ff19815416905533917ff6391f5c32d9c69d2a47ea670b442974b53935d1edc7fd64eb21e047a839171b600080a4005b3461057b57604036600319011261057b576114016123d3565b600435600052600060205260406000209060018060a01b0316600052602052602060ff604060002054166040519015158152f35b3461057b57602036600319011261057b5760043560005260086020526020604060002054604051908152f35b3461057b57604036600319011261057b57602435600435600052600a602052604060002090815481101561057b57611498916125fa565b50805460018201546001600160a01b031691610849906114ba600282016124ec565b6114ed6114ce6004600385015494016124ec565b916040519687968752602087015260a0604087015260a08601906125b5565b91606085015283820360808501526125b5565b3461057b57600036600319011261057b57611519612644565b611521612b1b565b600160ff19815416176001557f62e78cea01bee320cd4e420270b5ea74000d11b0c9f74754ebdbfc544b05a2586020604051338152a1005b3461057b57600036600319011261057b576004546040516001600160a01b039091168152602090f35b3461057b57600036600319011261057b5760206040517fa49807205ce4d355092ef5a8a18f56e8913cf4a201fbe287825b095693c217758152f35b3461057b5760208060031936011261057b57600435600052600a81526040600020908154916001600160401b038311610eb757604051916005936116058282871b018561243b565b808452818401809360005282600020866000925b8484106116c1575050505050604051928184019082855251809152604081818601961b85010192916000955b8287106116525785850386f35b9091929382806116b1600193603f198a8203018652885180518252858060a01b03848201511684830152611694604082015160a08060408601528401906125b5565b9160608083015190820152608080920151918184039101526125b5565b9601920196019592919092611645565b90856001926040999799516116d581612405565b85548152848060a01b038587015416838201526116f4600287016124ec565b60408201526003860154606082015261170f600487016124ec565b60808201528152019201920191908790969496611619565b3461057b57600036600319011261057b57602060ff600154166040519015158152f35b3461057b57602036600319011261057b57600435600052600760205260406000208054600182015491600281015490600160a01b600190039081600382015416826004830154168360058401541693600684016117a6906124ec565b6117b2600786016124ec565b90600886015496600987015494600a88015496600b89015498600c016117d7906124ec565b9a6040519d8e809e81526020015260408d015260608c015260808b015260a08a01526101e08060c08b0152890161180d916125b5565b88810360e08a015261181e916125b5565b9460ff811661182c816125da565b6101008901528060081c60ff16611842816125da565b61012089015260101c166101408701526101608601526101808501526101a08401528281036101c0840152610849916125b5565b3461057b57604036600319011261057b576004356024356001600160401b03811161057b576118a990369060040161245c565b50600081815260076020526040902060038101546001600160a01b039190821633148015611a5b575b15611a08576008810190815490600260ff83166118ee816125da565b036119c357600a01546203f48081018091116119ad5742116119685760ff19166003179081905560101c1680611949575b5033907fb7d987c7b3077187f28b5a254b9e07864507b257e6b84721cab6faaf346481f0600080a3005b600052600c60205260406000206119608154612eae565b90558161191f565b60405162461bcd60e51b815260206004820152601960248201527f41707065616c20706572696f64206861732065787069726564000000000000006044820152606490fd5b634e487b7160e01b600052601160045260246000fd5b60405162461bcd60e51b815260206004820152601860248201527f44697370757465206e6f74207265736f6c7665642079657400000000000000006044820152606490fd5b60405162461bcd60e51b815260206004820152602560248201527f4e6f7420617574686f72697a656420746f2061707065616c2074686973206469604482015264737075746560d81b6064820152608490fd5b508160048201541633146118d2565b3461057b57600036600319011261057b57611a83612644565b60015460ff811615611ac25760ff19166001557f5db9ee0a495bf2e6ff9c91a7834c1ba4fdd244a5e8aa4e537bd38aeae4b073aa6020604051338152a1005b60405162461bcd60e51b815260206004820152601460248201527314185d5cd8589b194e881b9bdd081c185d5cd95960621b6044820152606490fd5b3461057b57600036600319011261057b576003546040516001600160a01b039091168152602090f35b3461057b57604036600319011261057b57611b406123d3565b336001600160a01b03821603611b5c5761093d9060043561295d565b60405162461bcd60e51b815260206004820152602f60248201527f416363657373436f6e74726f6c3a2063616e206f6e6c792072656e6f756e636560448201526e103937b632b9903337b91039b2b63360891b6064820152608490fd5b3461057b57602036600319011261057b57611bd2612644565b600435600d55005b3461057b5760208060031936011261057b576001600160a01b03611bfc6123bd565b16600052600b8152604060002060405190818382549182815201908192600052846000209060005b86828210611c7a578686611c3a8288038361243b565b604051928392818401908285525180915260408401929160005b828110611c6357505050500390f35b835185528695509381019392810192600101611c54565b835485529093019260019283019201611c24565b3461057b57604036600319011261057b57600435611caa6123d3565b816000526000602052611cc460016040600020015461285e565b81600052600060205260406000209060018060a01b0316908160005260205260ff6040600020541615611cf357005b8160005260006020526040600020816000526020526040600020600160ff1982541617905533917f2f8788117e7eff1d82e926ec794901d17c78024a50270940304540a733656f0d600080a4005b3461057b57606036600319011261057b576004356001600160401b0360243581811161057b57611d7590369060040161245c565b9060443590811161057b57611d8e90369060040161245c565b9082600052602092600784526040600020604051611dab816123e9565b815481526001820154868201526002820154604082015260038201546001600160a01b039081166060830190815260048401548216608084019081526005850154831660a0850152928590611e02600687016124ec565b60c0820152611e13600787016124ec565b60e0820152611e81600c6008880154978660ff8a169961010086019a611e38816125da565b8b5260ff8160081c16611e4a816125da565b61012087015260101c166101408501526009810154610160850152600a810154610180850152600b8101546101a0850152016124ec565b6101c08201525103611fd457819051163314918215611fc6575b50508015611f96575b15611f47578051611eb4816125da565b611ebd816125da565b15908115611f29575b5015611ed85761093d93503390612b5f565b60405162461bcd60e51b8152600481018590526024808201527f43616e6e6f74207375626d69742065766964656e6365206174207468697320736044820152637461676560e01b6064820152608490fd5b6001915051611f37816125da565b611f40816125da565b1485611ec6565b60405162461bcd60e51b815260048101869052602160248201527f4e6f7420617574686f72697a656420746f207375626d69742065766964656e636044820152606560f81b6064820152608490fd5b50600080516020612ebe83398151915260005260008552604060002033600052855260ff60406000205416611ea4565b909150511633148680611e9b565b60405162461bcd60e51b8152600481018990526016602482015275111a5cdc1d5d1948191bd95cc81b9bdd08195e1a5cdd60521b6044820152606490fd5b3461057b57604036600319011261057b5760043561202e6123d3565b90612037612644565b6001600160a01b03821660008181527f124a13b16867194fc8fe1b97be0d668b89ac2a8dd77d418cf4feefa89864a62660209081526040909120549193909160ff16156122135783600052600c8252604060002054600d5411156121be57826000526007825260ff600860406000200154166120b2816125da565b61216d5760008381526007835260408082206008018054600160109590951b62010000600160b01b031661ff01600160b01b03199091161793909317909255848152600b83522080549190600160401b831015610eb7578261211b916001600c9501815561262c565b81549060031b9085821b91600019901b1916179055836000525260406000206121448154612eae565b90557f162b443ed37ca6ea8574f9a4d2dde0fdfb4282b29888dff526fbdd02834e66f0600080a3005b60405162461bcd60e51b8152600481018390526024808201527f44697370757465206e6f7420617661696c61626c6520666f722061737369676e6044820152631b595b9d60e21b6064820152608490fd5b60405162461bcd60e51b815260048101839052602760248201527f41726269747261746f722068617320746f6f206d616e792061637469766520646044820152666973707574657360c81b6064820152608490fd5b60405162461bcd60e51b815260048101839052601c60248201527f41646472657373206973206e6f7420616e2061726269747261746f72000000006044820152606490fd5b3461057b57602036600319011261057b5760043560005260006020526020600160406000200154604051908152f35b3461057b57600036600319011261057b576020600d54604051908152f35b3461057b57602036600319011261057b5760043563ffffffff60e01b811680910361057b57602090637965db0b60e01b81149081156122ea575b506040519015158152f35b6301ffc9a760e01b149050826122df565b3461057b5760208060031936011261057b576123156123bd565b61231d612644565b600080516020612ebe83398151915291826000526000815261234660016040600020015461285e565b600083815280825260408082206001600160a01b0390941680835293835290205460ff161561237157005b826000526000815260406000209082600052526040600020600160ff1982541617905533917f2f8788117e7eff1d82e926ec794901d17c78024a50270940304540a733656f0d600080a4005b600435906001600160a01b038216820361057b57565b602435906001600160a01b038216820361057b57565b6101e081019081106001600160401b03821117610eb757604052565b60a081019081106001600160401b03821117610eb757604052565b608081019081106001600160401b03821117610eb757604052565b90601f801991011681019081106001600160401b03821117610eb757604052565b81601f8201121561057b578035906001600160401b038211610eb75760405192612490601f8401601f19166020018561243b565b8284526020838301011161057b57816000926020809301838601378301015290565b90600182811c921680156124e2575b60208310146124cc57565b634e487b7160e01b600052602260045260246000fd5b91607f16916124c1565b9060405191826000825492612500846124b2565b90818452600194858116908160001461256f575060011461252c575b505061252a9250038361243b565b565b9093915060005260209081600020936000915b81831061255757505061252a9350820101388061251c565b8554888401850152948501948794509183019161253f565b91505061252a94506020925060ff191682840152151560051b820101388061251c565b60005b8381106125a55750506000910152565b8181015183820152602001612595565b906020916125ce81518092818552858086019101612592565b601f01601f1916010190565b600511156125e457565b634e487b7160e01b600052602160045260246000fd5b8054821015612616576000526005602060002091020190600090565b634e487b7160e01b600052603260045260246000fd5b80548210156126165760005260206000200190600090565b3360009081527f7d7ffb7a348e1c6a02869081a26547b49160dd3df72d1d75a570eb9b698292ec602090815260408083205490927fa49807205ce4d355092ef5a8a18f56e8913cf4a201fbe287825b095693c217759160ff16156126a85750505050565b6126b1336129ef565b918451906126be82612420565b6042825284820192606036853782511561284a576030845382516001908110156128365790607860218501536041915b8083116127dc5750505061279a57604861279693869361277a9361276b985198899376020b1b1b2b9b9a1b7b73a3937b61d1030b1b1b7bab73a1604d1b8a860152612742815180928c603789019101612592565b8401917001034b99036b4b9b9b4b733903937b6329607d1b603784015251809386840190612592565b0103602881018752018561243b565b5192839262461bcd60e51b8452600484015260248301906125b5565b0390fd5b60648486519062461bcd60e51b825280600483015260248201527f537472696e67733a20686578206c656e67746820696e73756666696369656e746044820152fd5b909192600f811660108110156128225761281b91906f181899199a1a9b1b9c1cb0b131b232b360811b901a61281186886129d1565b5360041c936129e2565b91906126ee565b634e487b7160e01b84526032600452602484fd5b634e487b7160e01b82526032600452602482fd5b634e487b7160e01b81526032600452602490fd5b600090808252602090828252604092838120338252835260ff8482205416156128875750505050565b612890336129ef565b9184519061289d82612420565b6042825284820192606036853782511561284a576030845382516001908110156128365790607860218501536041915b8083116129215750505061279a57604861279693869361277a9361276b985198899376020b1b1b2b9b9a1b7b73a3937b61d1030b1b1b7bab73a1604d1b8a860152612742815180928c603789019101612592565b909192600f811660108110156128225761295691906f181899199a1a9b1b9c1cb0b131b232b360811b901a61281186886129d1565b91906128cd565b9060009180835282602052604083209160018060a01b03169182845260205260ff60408420541661298d57505050565b80835282602052604083208284526020526040832060ff1981541690557ff6391f5c32d9c69d2a47ea670b442974b53935d1edc7fd64eb21e047a839171b339380a4565b908151811015612616570160200190565b80156119ad576000190190565b60405190606082018281106001600160401b03821117610eb757604052602a82526020820160403682378251156126165760309053815160019081101561261657607860218401536029905b808211612a8f575050612a4b5790565b606460405162461bcd60e51b815260206004820152602060248201527f537472696e67733a20686578206c656e67746820696e73756666696369656e746044820152fd5b9091600f8116906010821015612ad357612acd916f181899199a1a9b1b9c1cb0b131b232b360811b901a612ac385876129d1565b5360041c926129e2565b90612a3b565b60246000634e487b7160e01b81526032600452fd5b51906001600160a01b038216820361057b57565b90612b06816125da565b61ff0082549160081b169061ff001916179055565b60ff60015416612b2757565b60405162461bcd60e51b815260206004820152601060248201526f14185d5cd8589b194e881c185d5cd95960821b6044820152606490fd5b90939260405194612b6f86612405565b8286526020860160018060a01b0392838316825260408801908682524260608a0152608089015284600052600a60205260406000208054600160401b811015610eb757612bc1916001820181556125fa565b929092612e98578851835584600184019151166bffffffffffffffffffffffff60a01b825416179055518051906001600160401b038211610eb757612c0960028401546124b2565b601f8111612e51575b50602090601f8311600114612dde57918060809492600494600092612dd3575b50508160011b916000199060031b1c19161760028201555b60608901516003820155019601519586516001600160401b038111610eb757612c7382546124b2565b601f8111612d8b575b506020601f8211600114612d005781907fa49e7517d2b5714f7812f718444c5a2931d4fc670ed2d2aa2426ff2f42c5b44d96979899600092612cf5575b50508160011b916000199060031b1c19161790555b600160065401600655612cf060405192839260208452169560208301906125b5565b0390a3565b015190503880612cb9565b601f198216988360005260206000209960005b818110612d735750917fa49e7517d2b5714f7812f718444c5a2931d4fc670ed2d2aa2426ff2f42c5b44d9798999a91846001959410612d5a575b505050811b019055612cce565b015160001960f88460031b161c19169055388080612d4d565b838301518c556001909b019a60209384019301612d13565b826000526020600020601f830160051c81019160208410612dc9575b601f0160051c01905b818110612dbd5750612c7c565b60008155600101612db0565b9091508190612da7565b015190503880612c32565b90601f198316916002850160005260206000209260005b818110612e3957509260019285926004966080989610612e20575b505050811b016002820155612c4a565b015160001960f88460031b161c19169055388080612e10565b92936020600181928786015181550195019301612df5565b600284016000526020600020601f840160051c810160208510612e91575b601f830160051c82018110612e85575050612c12565b60008155600101612e6f565b5080612e6f565b634e487b7160e01b600052600060045260246000fd5b60001981146119ad576001019056fe16ceee8289685dd2a02b9c8ae81d2df373176ce53519e6284e2a2950d6546ffaa26469706673582212207a68161b0af7afe332a529ffb6f0910cb7c9e0ad477e2a6adeee4586a48332d664736f6c634300081300332f8788117e7eff1d82e926ec794901d17c78024a50270940304540a733656f0d",
  "linkReferences": {},
  "deployedLinkReferences": {}
}