{
  "_format": "hh-sol-artifact-1",
  "contractName": "EscrowManager",
  "sourceName": "contracts/EscrowManager.sol",
  "abi": [
    {
      "inputs": [
        {
          "internalType": "address",
          "name": "_jobManagerAddress",
          "type": "address"
        },
        {
          "internalType": "address",
          "name": "_registryAddress",
          "type": "address"
        },
        {
          "internalType": "address",
          "name": "_feeRecipient",
          "type": "address"
        }
      ],
      "stateMutability": "nonpayable",
      "type": "constructor"
    },
    {
      "anonymous": false,
      "inputs": [
        {
          "indexed": true,
          "internalType": "uint256",
          "name": "escrowId",
          "type": "uint256"
        }
      ],
      "name": "DisputeInitiated",
      "type": "event"
    },
    {
      "anonymous": false,
      "inputs": [
        {
          "indexed": true,
          "internalType": "uint256",
          "name": "escrowId",
          "type": "uint256"
        },
        {
          "indexed": true,
          "internalType": "uint256",
          "name": "jobId",
          "type": "uint256"
        },
        {
          "indexed": true,
          "internalType": "address",
          "name": "client",
          "type": "address"
        },
        {
          "indexed": false,
          "internalType": "address",
          "name": "freelancer",
          "type": "address"
        },
        {
          "indexed": false,
          "internalType": "uint256",
          "name": "amount",
          "type": "uint256"
        }
      ],
      "name": "EscrowCreated",
      "type": "event"
    },
    {
      "anonymous": false,
      "inputs": [
        {
          "indexed": false,
          "internalType": "address",
          "name": "account",
          "type": "address"
        }
      ],
      "name": "Paused",
      "type": "event"
    },
    {
      "anonymous": false,
      "inputs": [
        {
          "indexed": true,
          "internalType": "uint256",
          "name": "escrowId",
          "type": "uint256"
        },
        {
          "indexed": true,
          "internalType": "address",
          "name": "client",
          "type": "address"
        }
      ],
      "name": "PaymentApproved",
      "type": "event"
    },
    {
      "anonymous": false,
      "inputs": [
        {
          "indexed": true,
          "internalType": "uint256",
          "name": "escrowId",
          "type": "uint256"
        },
        {
          "indexed": true,
          "internalType": "address",
          "name": "client",
          "type": "address"
        },
        {
          "indexed": false,
          "internalType": "uint256",
          "name": "amount",
          "type": "uint256"
        }
      ],
      "name": "PaymentRefunded",
      "type": "event"
    },
    {
      "anonymous": false,
      "inputs": [
        {
          "indexed": true,
          "internalType": "uint256",
          "name": "escrowId",
          "type": "uint256"
        },
        {
          "indexed": true,
          "internalType": "address",
          "name": "freelancer",
          "type": "address"
        },
        {
          "indexed": false,
          "internalType": "uint256",
          "name": "amount",
          "type": "uint256"
        }
      ],
      "name": "PaymentReleased",
      "type": "event"
    },
    {
      "anonymous": false,
      "inputs": [
        {
          "indexed": true,
          "internalType": "bytes32",
          "name": "role",
          "type": "bytes32"
        },
        {
          "indexed": true,
          "internalType": "bytes32",
          "name": "previousAdminRole",
          "type": "bytes32"
        },
        {
          "indexed": true,
          "internalType": "bytes32",
          "name": "newAdminRole",
          "type": "bytes32"
        }
      ],
      "name": "RoleAdminChanged",
      "type": "event"
    },
    {
      "anonymous": false,
      "inputs": [
        {
          "indexed": true,
          "internalType": "bytes32",
          "name": "role",
          "type": "bytes32"
        },
        {
          "indexed": true,
          "internalType": "address",
          "name": "account",
          "type": "address"
        },
        {
          "indexed": true,
          "internalType": "address",
          "name": "sender",
          "type": "address"
        }
      ],
      "name": "RoleGranted",
      "type": "event"
    },
    {
      "anonymous": false,
      "inputs": [
        {
          "indexed": true,
          "internalType": "bytes32",
          "name": "role",
          "type": "bytes32"
        },
        {
          "indexed": true,
          "internalType": "address",
          "name": "account",
          "type": "address"
        },
        {
          "indexed": true,
          "internalType": "address",
          "name": "sender",
          "type": "address"
        }
      ],
      "name": "RoleRevoked",
      "type": "event"
    },
    {
      "anonymous": false,
      "inputs": [
        {
          "indexed": false,
          "internalType": "address",
          "name": "account",
          "type": "address"
        }
      ],
      "name": "Unpaused",
      "type": "event"
    },
    {
      "anonymous": false,
      "inputs": [
        {
          "indexed": true,
          "internalType": "uint256",
          "name": "escrowId",
          "type": "uint256"
        }
      ],
      "name": "WorkStarted",
      "type": "event"
    },
    {
      "anonymous": false,
      "inputs": [
        {
          "indexed": true,
          "internalType": "uint256",
          "name": "escrowId",
          "type": "uint256"
        }
      ],
      "name": "WorkSubmitted",
      "type": "event"
    },
    {
      "inputs": [],
      "name": "ADMIN_ROLE",
      "outputs": [
        {
          "internalType": "bytes32",
          "name": "",
          "type": "bytes32"
        }
      ],
      "stateMutability": "view",
      "type": "function"
    },
    {
      "inputs": [],
      "name": "DEFAULT_ADMIN_ROLE",
      "outputs": [
        {
          "internalType": "bytes32",
          "name": "",
          "type": "bytes32"
        }
      ],
      "stateMutability": "view",
      "type": "function"
    },
    {
      "inputs": [
        {
          "internalType": "uint256",
          "name": "_escrowId",
          "type": "uint256"
        }
      ],
      "name": "approveWork",
      "outputs": [],
      "stateMutability": "nonpayable",
      "type": "function"
    },
    {
      "inputs": [],
      "name": "autoReleaseDelay",
      "outputs": [
        {
          "internalType": "uint256",
          "name": "",
          "type": "uint256"
        }
      ],
      "stateMutability": "view",
      "type": "function"
    },
    {
      "inputs": [
        {
          "internalType": "uint256",
          "name": "_jobId",
          "type": "uint256"
        }
      ],
      "name": "createEscrow",
      "outputs": [
        {
          "internalType": "uint256",
          "name": "",
          "type": "uint256"
        }
      ],
      "stateMutability": "payable",
      "type": "function"
    },
    {
      "inputs": [
        {
          "internalType": "uint256",
          "name": "",
          "type": "uint256"
        }
      ],
      "name": "escrows",
      "outputs": [
        {
          "internalType": "uint256",
          "name": "id",
          "type": "uint256"
        },
        {
          "internalType": "uint256",
          "name": "jobId",
          "type": "uint256"
        },
        {
          "internalType": "address",
          "name": "client",
          "type": "address"
        },
        {
          "internalType": "address",
          "name": "freelancer",
          "type": "address"
        },
        {
          "internalType": "uint256",
          "name": "amount",
          "type": "uint256"
        },
        {
          "internalType": "uint256",
          "name": "platformFee",
          "type": "uint256"
        },
        {
          "internalType": "uint256",
          "name": "createdAt",
          "type": "uint256"
        },
        {
          "internalType": "uint256",
          "name": "releaseTime",
          "type": "uint256"
        },
        {
          "internalType": "enum EscrowManager.EscrowStatus",
          "name": "status",
          "type": "uint8"
        },
        {
          "internalType": "bool",
          "name": "clientApproved",
          "type": "bool"
        },
        {
          "internalType": "bool",
          "name": "freelancerConfirmed",
          "type": "bool"
        }
      ],
      "stateMutability": "view",
      "type": "function"
    },
    {
      "inputs": [],
      "name": "feeRecipient",
      "outputs": [
        {
          "internalType": "address",
          "name": "",
          "type": "address"
        }
      ],
      "stateMutability": "view",
      "type": "function"
    },
    {
      "inputs": [
        {
          "internalType": "uint256",
          "name": "_escrowId",
          "type": "uint256"
        }
      ],
      "name": "getEscrow",
      "outputs": [
        {
          "components": [
            {
              "internalType": "uint256",
              "name": "id",
              "type": "uint256"
            },
            {
              "internalType": "uint256",
              "name": "jobId",
              "type": "uint256"
            },
            {
              "internalType": "address",
              "name": "client",
              "type": "address"
            },
            {
              "internalType": "address",
              "name": "freelancer",
              "type": "address"
            },
            {
              "internalType": "uint256",
              "name": "amount",
              "type": "uint256"
            },
            {
              "internalType": "uint256",
              "name": "platformFee",
              "type": "uint256"
            },
            {
              "internalType": "uint256",
              "name": "createdAt",
              "type": "uint256"
            },
            {
              "internalType": "uint256",
              "name": "releaseTime",
              "type": "uint256"
            },
            {
              "internalType": "enum EscrowManager.EscrowStatus",
              "name": "status",
              "type": "uint8"
            },
            {
              "internalType": "bool",
              "name": "clientApproved",
              "type": "bool"
            },
            {
              "internalType": "bool",
              "name": "freelancerConfirmed",
              "type": "bool"
            }
          ],
          "internalType": "struct EscrowManager.Escrow",
          "name": "",
          "type": "tuple"
        }
      ],
      "stateMutability": "view",
      "type": "function"
    },
    {
      "inputs": [
        {
          "internalType": "uint256",
          "name": "_jobId",
          "type": "uint256"
        }
      ],
      "name": "getEscrowByJob",
      "outputs": [
        {
          "internalType": "uint256",
          "name": "",
          "type": "uint256"
        }
      ],
      "stateMutability": "view",
      "type": "function"
    },
    {
      "inputs": [
        {
          "internalType": "bytes32",
          "name": "role",
          "type": "bytes32"
        }
      ],
      "name": "getRoleAdmin",
      "outputs": [
        {
          "internalType": "bytes32",
          "name": "",
          "type": "bytes32"
        }
      ],
      "stateMutability": "view",
      "type": "function"
    },
    {
      "inputs": [
        {
          "internalType": "address",
          "name": "_user",
          "type": "address"
        }
      ],
      "name": "getUserEscrows",
      "outputs": [
        {
          "internalType": "uint256[]",
          "name": "",
          "type": "uint256[]"
        }
      ],
      "stateMutability": "view",
      "type": "function"
    },
    {
      "inputs": [
        {
          "internalType": "bytes32",
          "name": "role",
          "type": "bytes32"
        },
        {
          "internalType": "address",
          "name": "account",
          "type": "address"
        }
      ],
      "name": "grantRole",
      "outputs": [],
      "stateMutability": "nonpayable",
      "type": "function"
    },
    {
      "inputs": [
        {
          "internalType": "bytes32",
          "name": "role",
          "type": "bytes32"
        },
        {
          "internalType": "address",
          "name": "account",
          "type": "address"
        }
      ],
      "name": "hasRole",
      "outputs": [
        {
          "internalType": "bool",
          "name": "",
          "type": "bool"
        }
      ],
      "stateMutability": "view",
      "type": "function"
    },
    {
      "inputs": [],
      "name": "jobManager",
      "outputs": [
        {
          "internalType": "contract IJobManager",
          "name": "",
          "type": "address"
        }
      ],
      "stateMutability": "view",
      "type": "function"
    },
    {
      "inputs": [
        {
          "internalType": "uint256",
          "name": "",
          "type": "uint256"
        }
      ],
      "name": "jobToEscrow",
      "outputs": [
        {
          "internalType": "uint256",
          "name": "",
          "type": "uint256"
        }
      ],
      "stateMutability": "view",
      "type": "function"
    },
    {
      "inputs": [],
      "name": "pause",
      "outputs": [],
      "stateMutability": "nonpayable",
      "type": "function"
    },
    {
      "inputs": [],
      "name": "paused",
      "outputs": [
        {
          "internalType": "bool",
          "name": "",
          "type": "bool"
        }
      ],
      "stateMutability": "view",
      "type": "function"
    },
    {
      "inputs": [],
      "name": "platformFeeRate",
      "outputs": [
        {
          "internalType": "uint256",
          "name": "",
          "type": "uint256"
        }
      ],
      "stateMutability": "view",
      "type": "function"
    },
    {
      "inputs": [
        {
          "internalType": "uint256",
          "name": "_escrowId",
          "type": "uint256"
        }
      ],
      "name": "processRefund",
      "outputs": [],
      "stateMutability": "nonpayable",
      "type": "function"
    },
    {
      "inputs": [],
      "name": "registry",
      "outputs": [
        {
          "internalType": "contract ISafeGigRegistry",
          "name": "",
          "type": "address"
        }
      ],
      "stateMutability": "view",
      "type": "function"
    },
    {
      "inputs": [
        {
          "internalType": "uint256",
          "name": "_escrowId",
          "type": "uint256"
        }
      ],
      "name": "releasePayment",
      "outputs": [],
      "stateMutability": "nonpayable",
      "type": "function"
    },
    {
      "inputs": [
        {
          "internalType": "bytes32",
          "name": "role",
          "type": "bytes32"
        },
        {
          "internalType": "address",
          "name": "account",
          "type": "address"
        }
      ],
      "name": "renounceRole",
      "outputs": [],
      "stateMutability": "nonpayable",
      "type": "function"
    },
    {
      "inputs": [
        {
          "internalType": "uint256",
          "name": "_escrowId",
          "type": "uint256"
        }
      ],
      "name": "requestRefund",
      "outputs": [],
      "stateMutability": "nonpayable",
      "type": "function"
    },
    {
      "inputs": [
        {
          "internalType": "bytes32",
          "name": "role",
          "type": "bytes32"
        },
        {
          "internalType": "address",
          "name": "account",
          "type": "address"
        }
      ],
      "name": "revokeRole",
      "outputs": [],
      "stateMutability": "nonpayable",
      "type": "function"
    },
    {
      "inputs": [
        {
          "internalType": "uint256",
          "name": "_delay",
          "type": "uint256"
        }
      ],
      "name": "setAutoReleaseDelay",
      "outputs": [],
      "stateMutability": "nonpayable",
      "type": "function"
    },
    {
      "inputs": [
        {
          "internalType": "address",
          "name": "_feeRecipient",
          "type": "address"
        }
      ],
      "name": "setFeeRecipient",
      "outputs": [],
      "stateMutability": "nonpayable",
      "type": "function"
    },
    {
      "inputs": [
        {
          "internalType": "uint256",
          "name": "_feeRate",
          "type": "uint256"
        }
      ],
      "name": "setPlatformFeeRate",
      "outputs": [],
      "stateMutability": "nonpayable",
      "type": "function"
    },
    {
      "inputs": [
        {
          "internalType": "uint256",
          "name": "_escrowId",
          "type": "uint256"
        }
      ],
      "name": "startWork",
      "outputs": [],
      "stateMutability": "nonpayable",
      "type": "function"
    },
    {
      "inputs": [
        {
          "internalType": "uint256",
          "name": "_escrowId",
          "type": "uint256"
        },
        {
          "internalType": "string",
          "name": "_deliveryURI",
          "type": "string"
        }
      ],
      "name": "submitWork",
      "outputs": [],
      "stateMutability": "nonpayable",
      "type": "function"
    },
    {
      "inputs": [
        {
          "internalType": "bytes4",
          "name": "interfaceId",
          "type": "bytes4"
        }
      ],
      "name": "supportsInterface",
      "outputs": [
        {
          "internalType": "bool",
          "name": "",
          "type": "bool"
        }
      ],
      "stateMutability": "view",
      "type": "function"
    },
    {
      "inputs": [],
      "name": "unpause",
      "outputs": [],
      "stateMutability": "nonpayable",
      "type": "function"
    },
    {
      "inputs": [
        {
          "internalType": "address",
          "name": "",
          "type": "address"
        },
        {
          "internalType": "uint256",
          "name": "",
          "type": "uint256"
        }
      ],
      "name": "userEscrows",
      "outputs": [
        {
          "internalType": "uint256",
          "name": "",
          "type": "uint256"
        }
      ],
      "stateMutability": "view",
      "type": "function"
    }
  ],
  "bytecode": "0x6080346200019a57601f620022e438819003918201601f191683019291906001600160401b038411838510176200019f5781606092849260409687528339810103126200019a576200005181620001b5565b906020916200006f8462000067858501620001b5565b9301620001b5565b9160ff19928360015416600155600160025560fa60095562093a80600a5560018060a01b0380928160018060a01b03199516856003541617600355168360045416176004551690600b541617600b55600090818052818352838220338352835260ff84832054161562000164575b7fa49807205ce4d355092ef5a8a18f56e8913cf4a201fbe287825b095693c2177592838352828152848320338452815260ff8584205416156200012a575b84516120f99081620001cb8239f35b83835282815284832090338452526001848320918254161790553391600080516020620022c4833981519152339280a4388080806200011b565b8180528183528382203383528352838220600182825416179055333383600080516020620022c48339815191528180a4620000dd565b600080fd5b634e487b7160e01b600052604160045260246000fd5b51906001600160a01b03821682036200019a5756fe608080604052600436101561001357600080fd5b60003560e01c908162d0ca9d146116f857508063012f52ee1461164357806301ffc9a7146115ed57806303a250f9146114e3578063248a9ca3146114b45780632f2ff15d1461140157806336568abe1461136f5780633d01e0fa146112575780633df395a31461122e5780633f4ba83a1461119a57806346904840146111715780635c975abb1461114e5780635ccea85e1461109a57806375b238fc1461105f5780637b103999146110365780637d19e59614610e9a5780637f944dd014610e425780638456cb5914610de957806388685cd914610cde5780638da2c8731461087d57806391d1485414610830578063927fef2e146107c157806394e015c8146107a35780639a8051341461071e578063a217fddf14610702578063a4b2409e1461057e578063d547741f1461053d578063d65d5b3a14610511578063da8accf914610376578063dac87ca41461022b578063e74b981b146101a15763eeca08f01461017e57600080fd5b3461019c57600036600319011261019c576020600954604051908152f35b600080fd5b3461019c57602036600319011261019c576101ba611743565b6101c2611814565b6001600160a01b031680156101ee576bffffffffffffffffffffffff60a01b600b541617600b55600080f35b60405162461bcd60e51b8152602060048201526015602482015274125b9d985b1a5908199959481c9958da5c1a595b9d605a1b6044820152606490fd5b3461019c57602036600319011261019c57600435610247611814565b61024f611da7565b80600052600660205260406000209060088201805460ff811660078110156103605760060361031b5760059060ff19161790556002820160018060a01b039060008080806004868654169801978854905af16102a9611e8b565b50156102e6577fe89ec1881a76229445bcd179b8c4b24f9edc7ddd87d07fb3b19c67ae9c6e27cc9160209154169354604051908152a36001600255005b60405162461bcd60e51b815260206004820152600d60248201526c1499599d5b990819985a5b1959609a1b6044820152606490fd5b60405162461bcd60e51b815260206004820152601d60248201527f457363726f77206e6f7420696e206469737075746564207374617475730000006044820152606490fd5b634e487b7160e01b600052602160045260246000fd5b3461019c57604036600319011261019c5760043560243567ffffffffffffffff811161019c573660238201121561019c578060040135906103b6826117f8565b906103c460405192836117d6565b828252366024848301011161019c5782600092602494602095869401848301370101526000828152600682526040902060028101546001600160a01b03916104189183163314908115610501575b50611dfb565b826000526006825260ff6008604060002001541660078110156103605760016104419114611e47565b8260005260068252339060036040600020015416036104bd57816000526006815260086040600020016201000262ff00ff198254161790556006610487600a5442611be8565b9183600052526007604060002001557f37da35a9cc37616d182b3f359f2fff61f738f090deb49c6a76a9c84c2462ba0e600080a2005b6064906040519062461bcd60e51b82526004820152601f60248201527f4f6e6c7920667265656c616e6365722063616e207375626d697420776f726b006044820152fd5b6003015483163314905085610412565b3461019c57602036600319011261019c5760043560005260076020526020604060002054604051908152f35b3461019c57604036600319011261019c5761057c60043561055c61172d565b90806000526000602052610577600160406000200154611a46565b611b74565b005b3461019c5760208060031936011261019c57600435908160005260069081815260406000206105c460018060a01b03918260028201541633149081156106f25750611dfb565b83600052828252339060026040600020015416036106ae578260005281815260ff60086040600020015416600781101561036057158015610689575b15610645578190836000525260086040600020019060ff198254161790557f116f6b179359db1a58a963fc783ee184e7844aba306a3c2ce02de3d7391d17c3600080a2005b6064906040519062461bcd60e51b82526004820152601b60248201527f43616e6e6f7420726566756e64206174207468697320737461676500000000006044820152fd5b508260005281815260ff60086040600020015416600781101561036057600114610600565b6064906040519062461bcd60e51b82526004820152601e60248201527f4f6e6c7920636c69656e742063616e207265717565737420726566756e6400006044820152fd5b6003015483163314905086610412565b3461019c57600036600319011261019c57602060405160008152f35b3461019c57602036600319011261019c5760043561073a611814565b6201518081101580610796575b1561075157600a55005b60405162461bcd60e51b815260206004820152601f60248201527f44656c6179206d757374206265206265747765656e20312d33302064617973006044820152606490fd5b5062278d00811115610747565b3461019c57600036600319011261019c576020600a54604051908152f35b3461019c57602036600319011261019c576004356107dd611814565b6103e881116107eb57600955005b60405162461bcd60e51b815260206004820152601a60248201527f46656520726174652063616e6e6f7420657863656564203130250000000000006044820152606490fd5b3461019c57604036600319011261019c5761084961172d565b600435600052600060205260406000209060018060a01b0316600052602052602060ff604060002054166040519015158152f35b602036600319011261019c576024600435610896611d63565b61089e611da7565b6003546040516326561ae360e11b8152600481018390529260809184919082906001600160a01b03165afa918215610cd257600090600091600091600095610c6f575b506001600160a01b031691338303610c20576001600160a01b0316938415610bdb5760ff6001911603610b96573403610b5157816000526007602052604060002054610b01576005549160018301600555600954803402903482041434151715610aeb57610951600a5442611be8565b6127106040519261096184611787565b8684528460208501528560408501528760608501523460808501520460a08301524260c083015260e08201526000610100820152600061012082015260006101408201528360005260066020526008604060002082518155602083015160018201556002810160018060a01b03604085015116906bffffffffffffffffffffffff60a01b9182825416179055600382019060018060a01b03606086015116908254161790556080830151600482015560a0830151600582015560c0830151600682015560e08301516007820155019061010081015190600782101561036057602096837fa96863da5e2cb895c2d739ef4b0a2bf93464d7bb3a3bf098c0af12c1b404c43a9360409389965460ff62ff000061014061ff00610120860151151560081b16940151151560101b1693169062ffffff1916171717905584600052600788528382600020558560005260088852610abe8483600020611d29565b8060005260088852610ad38483600020611d29565b81519081523488820152a46001600255604051908152f35b634e487b7160e01b600052601160045260246000fd5b60405162461bcd60e51b815260206004820152602260248201527f457363726f7720616c72656164792065786973747320666f722074686973206a60448201526137b160f11b6064820152608490fd5b60405162461bcd60e51b815260206004820152601760248201527f496e636f727265637420657363726f7720616d6f756e740000000000000000006044820152606490fd5b60405162461bcd60e51b815260206004820152601a60248201527f4a6f62206e6f7420696e2061737369676e6564207374617475730000000000006044820152606490fd5b60405162461bcd60e51b815260206004820152601e60248201527f4a6f62206e6f742061737369676e656420746f20667265656c616e63657200006044820152606490fd5b60405162461bcd60e51b815260206004820152602160248201527f4f6e6c79206a6f6220636c69656e742063616e2063726561746520657363726f6044820152607760f81b6064820152608490fd5b94505050506080823d8211610cca575b81610c8c608093836117d6565b8101031261019c57610c9d82611d15565b91610caa60208201611d15565b92606060408301519201519060ff8216820361019c5793919093856108e1565b3d9150610c7f565b6040513d6000823e3d90fd5b3461019c57602036600319011261019c5760043560008181526006602052604090206002810154610d2591336001600160a01b0392831614918215610dd7575b5050611dfb565b610d2d611da7565b806000526006602052604060002060ff6008820154169060078210156103605760038214918215610db5575b505015610d7057610d6990611ebb565b6001600255005b60405162461bcd60e51b815260206004820152601a60248201527f43616e6e6f742072656c65617365207061796d656e74207965740000000000006044820152606490fd5b600214915081610dc8575b508280610d59565b60079150015442101582610dc0565b90915060033392015416148380610d1e565b3461019c57600036600319011261019c57610e02611814565b610e0a611d63565b600160ff19815416176001557f62e78cea01bee320cd4e420270b5ea74000d11b0c9f74754ebdbfc544b05a2586020604051338152a1005b3461019c57604036600319011261019c57610e5b611743565b6001600160a01b031660009081526008602052604090208054602435919082101561019c57602091610e8c91611759565b90546040519160031b1c8152f35b3461019c57602036600319011261019c576000610140604051610ebc81611787565b8281528260208201528260408201528260608201528260808201528260a08201528260c08201528260e08201528261010082015282610120820152015260043560005260066020526040600020600860405191610f1883611787565b805483526001810154602084015260028101546001600160a01b039081166040850152600382015416606084015260048101546080840152600581015460a0840152600681015460c084015260078082015460e0850152910154919060ff831690811015610360576101609260ff91610100840152818160081c16151561012084015260101c16151561014082015261014060405191805183526020810151602084015260018060a01b03604082015116604084015260018060a01b0360608201511660608401526080810151608084015260a081015160a084015260c081015160c084015260e081015160e084015261101c610100820151610100850190611720565b610120810151151561012084015201511515610140820152f35b3461019c57600036600319011261019c576004546040516001600160a01b039091168152602090f35b3461019c57600036600319011261019c5760206040517fa49807205ce4d355092ef5a8a18f56e8913cf4a201fbe287825b095693c217758152f35b3461019c5760208060031936011261019c576001600160a01b036110bc611743565b1660005260088152604060002060405190818382549182815201908192600052846000209060005b8682821061113a5786866110fa828803836117d6565b604051928392818401908285525180915260408401929160005b82811061112357505050500390f35b835185528695509381019392810192600101611114565b8354855290930192600192830192016110e4565b3461019c57600036600319011261019c57602060ff600154166040519015158152f35b3461019c57600036600319011261019c57600b546040516001600160a01b039091168152602090f35b3461019c57600036600319011261019c576111b3611814565b60015460ff8116156111f25760ff19166001557f5db9ee0a495bf2e6ff9c91a7834c1ba4fdd244a5e8aa4e537bd38aeae4b073aa6020604051338152a1005b60405162461bcd60e51b815260206004820152601460248201527314185d5cd8589b194e881b9bdd081c185d5cd95960621b6044820152606490fd5b3461019c57600036600319011261019c576003546040516001600160a01b039091168152602090f35b3461019c5760208060031936011261019c576004356000818152600683526040902060028101546001600160a01b039161129c91831633149081156105015750611dfb565b816000526006835260ff6008604060002001541660078110156103605760026112c59114611e47565b81600052600683523390600260406000200154160361132a57600661057c928260005252600860406000200161010361ffff1982541617905533817f7c0257138bc682dcff9eb84d702bf9118b11a37ab9af95828ea7332c078eb93f600080a3611ebb565b60405162461bcd60e51b815260048101839052601c60248201527f4f6e6c7920636c69656e742063616e20617070726f766520776f726b000000006044820152606490fd5b3461019c57604036600319011261019c5761138861172d565b336001600160a01b038216036113a45761057c90600435611b74565b60405162461bcd60e51b815260206004820152602f60248201527f416363657373436f6e74726f6c3a2063616e206f6e6c792072656e6f756e636560448201526e103937b632b9903337b91039b2b63360891b6064820152608490fd5b3461019c57604036600319011261019c5760043561141d61172d565b816000526000602052611437600160406000200154611a46565b81600052600060205260406000209060018060a01b0316908160005260205260ff604060002054161561146657005b8160005260006020526040600020816000526020526040600020600160ff1982541617905533917f2f8788117e7eff1d82e926ec794901d17c78024a50270940304540a733656f0d600080a4005b3461019c57602036600319011261019c5760043560005260006020526020600160406000200154604051908152f35b3461019c5760208060031936011261019c57600435908160005260068152604060002061152760018060a01b03918260028201541633149081156105015750611dfb565b826000526006825260ff6008604060002001541660078110156103605761154e9015611e47565b8260005260068252339060036040600020015416036115a95760069082600052526008604060002001600160ff198254161790557fc3c378194d9e90cdb8b913079ee164e56f5f5286b5ebff8c41501540bd3e2670600080a2005b6064906040519062461bcd60e51b82526004820152601e60248201527f4f6e6c7920667265656c616e6365722063616e20737461727420776f726b00006044820152fd5b3461019c57602036600319011261019c5760043563ffffffff60e01b811680910361019c57602090637965db0b60e01b8114908115611632575b506040519015158152f35b6301ffc9a760e01b14905082611627565b3461019c57602036600319011261019c576004356000526006602052610160604060002060ff81549160018101549060018060a01b03806002830154169060038301541660048301546005840154916006850154936008600787015496015496604051998a5260208a015260408901526060880152608087015260a086015260c085015260e08401526116dc6101008401838316611720565b818160081c16151561012084015260101c161515610140820152f35b3461019c57602036600319011261019c57602090600435600052600782526040600020548152f35b9060078210156103605752565b602435906001600160a01b038216820361019c57565b600435906001600160a01b038216820361019c57565b80548210156117715760005260206000200190600090565b634e487b7160e01b600052603260045260246000fd5b610160810190811067ffffffffffffffff8211176117a457604052565b634e487b7160e01b600052604160045260246000fd5b6080810190811067ffffffffffffffff8211176117a457604052565b90601f8019910116810190811067ffffffffffffffff8211176117a457604052565b67ffffffffffffffff81116117a457601f01601f191660200190565b3360009081527f7d7ffb7a348e1c6a02869081a26547b49160dd3df72d1d75a570eb9b698292ec6020908152604080832054909291907fa49807205ce4d355092ef5a8a18f56e8913cf4a201fbe287825b095693c217759060ff161561187a5750505050565b61188333611c06565b90845190611890826117ba565b60428252838201946060368737825115611a325760308653825190600191821015611a325790607860218501536041915b8183116119c457505050611982578461195060486119749360449798519889916119418984019876020b1b1b2b9b9a1b7b73a3937b61d1030b1b1b7bab73a1604d1b8a52611918815180928d603789019101611b51565b8401917001034b99036b4b9b9b4b733903937b6329607d1b603784015251809386840190611b51565b010360288101895201876117d6565b5194859362461bcd60e51b8552600485015251809281602486015285850190611b51565b601f01601f19168101030190fd5b60648386519062461bcd60e51b825280600483015260248201527f537472696e67733a20686578206c656e67746820696e73756666696369656e746044820152fd5b909192600f81166010811015611a1e576f181899199a1a9b1b9c1cb0b131b232b360811b901a6119f48587611bf5565b5360041c928015611a0a576000190191906118c1565b634e487b7160e01b82526011600452602482fd5b634e487b7160e01b83526032600452602483fd5b634e487b7160e01b81526032600452602490fd5b60008181526020818152604092838320338452825260ff848420541615611a6d5750505050565b611a7633611c06565b90845190611a83826117ba565b60428252838201946060368737825115611a325760308653825190600191821015611a325790607860218501536041915b818311611b0b57505050611982578461195060486119749360449798519889916119418984019876020b1b1b2b9b9a1b7b73a3937b61d1030b1b1b7bab73a1604d1b8a52611918815180928d603789019101611b51565b909192600f81166010811015611a1e576f181899199a1a9b1b9c1cb0b131b232b360811b901a611b3b8587611bf5565b5360041c928015611a0a57600019019190611ab4565b60005b838110611b645750506000910152565b8181015183820152602001611b54565b9060009180835282602052604083209160018060a01b03169182845260205260ff604084205416611ba457505050565b80835282602052604083208284526020526040832060ff1981541690557ff6391f5c32d9c69d2a47ea670b442974b53935d1edc7fd64eb21e047a839171b339380a4565b91908201809211610aeb57565b908151811015611771570160200190565b604051906060820182811067ffffffffffffffff8211176117a457604052602a82526020820160403682378251156117715760309053815160019081101561177157607860218401536029905b808211611ca7575050611c635790565b606460405162461bcd60e51b815260206004820152602060248201527f537472696e67733a20686578206c656e67746820696e73756666696369656e746044820152fd5b9091600f81166010811015611d00576f181899199a1a9b1b9c1cb0b131b232b360811b901a611cd68486611bf5565b5360041c918015611ceb576000190190611c53565b60246000634e487b7160e01b81526011600452fd5b60246000634e487b7160e01b81526032600452fd5b51906001600160a01b038216820361019c57565b8054680100000000000000008110156117a457611d4b91600182018155611759565b819291549060031b91821b91600019901b1916179055565b60ff60015416611d6f57565b60405162461bcd60e51b815260206004820152601060248201526f14185d5cd8589b194e881c185d5cd95960821b6044820152606490fd5b6002805414611db65760028055565b60405162461bcd60e51b815260206004820152601f60248201527f5265656e7472616e637947756172643a207265656e7472616e742063616c6c006044820152606490fd5b15611e0257565b60405162461bcd60e51b815260206004820152601e60248201527f4e6f7420617574686f72697a656420666f72207468697320657363726f7700006044820152606490fd5b15611e4e57565b60405162461bcd60e51b8152602060048201526015602482015274496e76616c696420657363726f772073746174757360581b6044820152606490fd5b3d15611eb6573d90611e9c826117f8565b91611eaa60405193846117d6565b82523d6000602084013e565b606090565b600090808252602060068152604092838120600881019182549260ff84169360078510156120af5760049485811461206c5760051461202957849060ff19161790558282015492600583019283548503948511612016576003019160018060a01b03938180808089898954165af1611f31611e8b565b5015611fd3575480611f70575b505050907f21d71db5be59bb9fa133895586b7404307dd33fb93b16db09dc6f1d9d7d231b093929154169451908152a3565b8180809287600b54165af1611f83611e8b565b5015611f90578080611f3e565b865162461bcd60e51b8152908101859052601c60248201527f506c6174666f726d20666565207472616e73666572206661696c6564000000006044820152606490fd5b885162461bcd60e51b8152808401889052601c60248201527f5061796d656e7420746f20667265656c616e636572206661696c6564000000006044820152606490fd5b634e487b7160e01b835260118252602483fd5b875162461bcd60e51b8152808601879052601860248201527f5061796d656e7420616c726561647920726566756e64656400000000000000006044820152606490fd5b885162461bcd60e51b8152808701889052601860248201527f5061796d656e7420616c72656164792072656c656173656400000000000000006044820152606490fd5b634e487b7160e01b83526021600452602483fdfea264697066735822122015795e61b9d58adb981c2fbb1a4a0f8628c34a23b37042d79d1368a3e92ebc0764736f6c634300081300332f8788117e7eff1d82e926ec794901d17c78024a50270940304540a733656f0d",
  "linkReferences": {},
  "deployedLinkReferences": {}
}