{
  "_format": "hh-sol-artifact-1",
  "contractName": "JobManager",
  "sourceName": "contracts/JobManager.sol",
  "abi": [
    {
      "inputs": [
        {
          "internalType": "address",
          "name": "_registryAddress",
          "type": "address"
        }
      ],
      "stateMutability": "nonpayable",
      "type": "constructor"
    },
    {
      "anonymous": false,
      "inputs": [
        {
          "indexed": true,
          "internalType": "uint256",
          "name": "applicationId",
          "type": "uint256"
        },
        {
          "indexed": false,
          "internalType": "enum JobManager.ApplicationStatus",
          "name": "status",
          "type": "uint8"
        }
      ],
      "name": "ApplicationStatusUpdated",
      "type": "event"
    },
    {
      "anonymous": false,
      "inputs": [
        {
          "indexed": true,
          "internalType": "uint256",
          "name": "applicationId",
          "type": "uint256"
        },
        {
          "indexed": true,
          "internalType": "uint256",
          "name": "jobId",
          "type": "uint256"
        },
        {
          "indexed": true,
          "internalType": "address",
          "name": "freelancer",
          "type": "address"
        }
      ],
      "name": "JobApplicationSubmitted",
      "type": "event"
    },
    {
      "anonymous": false,
      "inputs": [
        {
          "indexed": true,
          "internalType": "uint256",
          "name": "jobId",
          "type": "uint256"
        },
        {
          "indexed": true,
          "internalType": "address",
          "name": "freelancer",
          "type": "address"
        }
      ],
      "name": "JobAssigned",
      "type": "event"
    },
    {
      "anonymous": false,
      "inputs": [
        {
          "indexed": true,
          "internalType": "uint256",
          "name": "jobId",
          "type": "uint256"
        },
        {
          "indexed": true,
          "internalType": "address",
          "name": "freelancer",
          "type": "address"
        },
        {
          "indexed": false,
          "internalType": "uint256",
          "name": "amount",
          "type": "uint256"
        }
      ],
      "name": "JobCompleted",
      "type": "event"
    },
    {
      "anonymous": false,
      "inputs": [
        {
          "indexed": true,
          "internalType": "uint256",
          "name": "jobId",
          "type": "uint256"
        },
        {
          "indexed": true,
          "internalType": "address",
          "name": "client",
          "type": "address"
        },
        {
          "indexed": false,
          "internalType": "uint256",
          "name": "budget",
          "type": "uint256"
        }
      ],
      "name": "JobPosted",
      "type": "event"
    },
    {
      "anonymous": false,
      "inputs": [
        {
          "indexed": true,
          "internalType": "uint256",
          "name": "jobId",
          "type": "uint256"
        },
        {
          "indexed": false,
          "internalType": "enum JobManager.JobStatus",
          "name": "status",
          "type": "uint8"
        }
      ],
      "name": "JobStatusUpdated",
      "type": "event"
    },
    {
      "anonymous": false,
      "inputs": [
        {
          "indexed": false,
          "internalType": "address",
          "name": "account",
          "type": "address"
        }
      ],
      "name": "Paused",
      "type": "event"
    },
    {
      "anonymous": false,
      "inputs": [
        {
          "indexed": true,
          "internalType": "bytes32",
          "name": "role",
          "type": "bytes32"
        },
        {
          "indexed": true,
          "internalType": "bytes32",
          "name": "previousAdminRole",
          "type": "bytes32"
        },
        {
          "indexed": true,
          "internalType": "bytes32",
          "name": "newAdminRole",
          "type": "bytes32"
        }
      ],
      "name": "RoleAdminChanged",
      "type": "event"
    },
    {
      "anonymous": false,
      "inputs": [
        {
          "indexed": true,
          "internalType": "bytes32",
          "name": "role",
          "type": "bytes32"
        },
        {
          "indexed": true,
          "internalType": "address",
          "name": "account",
          "type": "address"
        },
        {
          "indexed": true,
          "internalType": "address",
          "name": "sender",
          "type": "address"
        }
      ],
      "name": "RoleGranted",
      "type": "event"
    },
    {
      "anonymous": false,
      "inputs": [
        {
          "indexed": true,
          "internalType": "bytes32",
          "name": "role",
          "type": "bytes32"
        },
        {
          "indexed": true,
          "internalType": "address",
          "name": "account",
          "type": "address"
        },
        {
          "indexed": true,
          "internalType": "address",
          "name": "sender",
          "type": "address"
        }
      ],
      "name": "RoleRevoked",
      "type": "event"
    },
    {
      "anonymous": false,
      "inputs": [
        {
          "indexed": false,
          "internalType": "address",
          "name": "account",
          "type": "address"
        }
      ],
      "name": "Unpaused",
      "type": "event"
    },
    {
      "inputs": [],
      "name": "ADMIN_ROLE",
      "outputs": [
        {
          "internalType": "bytes32",
          "name": "",
          "type": "bytes32"
        }
      ],
      "stateMutability": "view",
      "type": "function"
    },
    {
      "inputs": [],
      "name": "DEFAULT_ADMIN_ROLE",
      "outputs": [
        {
          "internalType": "bytes32",
          "name": "",
          "type": "bytes32"
        }
      ],
      "stateMutability": "view",
      "type": "function"
    },
    {
      "inputs": [
        {
          "internalType": "uint256",
          "name": "_applicationId",
          "type": "uint256"
        }
      ],
      "name": "acceptApplication",
      "outputs": [],
      "stateMutability": "nonpayable",
      "type": "function"
    },
    {
      "inputs": [
        {
          "internalType": "uint256",
          "name": "",
          "type": "uint256"
        }
      ],
      "name": "applications",
      "outputs": [
        {
          "internalType": "uint256",
          "name": "jobId",
          "type": "uint256"
        },
        {
          "internalType": "address",
          "name": "freelancer",
          "type": "address"
        },
        {
          "internalType": "string",
          "name": "proposalURI",
          "type": "string"
        },
        {
          "internalType": "uint256",
          "name": "proposedBudget",
          "type": "uint256"
        },
        {
          "internalType": "uint256",
          "name": "proposedDeadline",
          "type": "uint256"
        },
        {
          "internalType": "uint256",
          "name": "appliedAt",
          "type": "uint256"
        },
        {
          "internalType": "enum JobManager.ApplicationStatus",
          "name": "status",
          "type": "uint8"
        }
      ],
      "stateMutability": "view",
      "type": "function"
    },
    {
      "inputs": [
        {
          "internalType": "uint256",
          "name": "_jobId",
          "type": "uint256"
        },
        {
          "internalType": "string",
          "name": "_proposalURI",
          "type": "string"
        },
        {
          "internalType": "uint256",
          "name": "_proposedBudget",
          "type": "uint256"
        },
        {
          "internalType": "uint256",
          "name": "_proposedDeadline",
          "type": "uint256"
        }
      ],
      "name": "applyForJob",
      "outputs": [
        {
          "internalType": "uint256",
          "name": "",
          "type": "uint256"
        }
      ],
      "stateMutability": "nonpayable",
      "type": "function"
    },
    {
      "inputs": [
        {
          "internalType": "address",
          "name": "",
          "type": "address"
        },
        {
          "internalType": "uint256",
          "name": "",
          "type": "uint256"
        }
      ],
      "name": "clientJobs",
      "outputs": [
        {
          "internalType": "uint256",
          "name": "",
          "type": "uint256"
        }
      ],
      "stateMutability": "view",
      "type": "function"
    },
    {
      "inputs": [
        {
          "internalType": "address",
          "name": "",
          "type": "address"
        },
        {
          "internalType": "uint256",
          "name": "",
          "type": "uint256"
        }
      ],
      "name": "freelancerApplications",
      "outputs": [
        {
          "internalType": "uint256",
          "name": "",
          "type": "uint256"
        }
      ],
      "stateMutability": "view",
      "type": "function"
    },
    {
      "inputs": [
        {
          "internalType": "address",
          "name": "",
          "type": "address"
        },
        {
          "internalType": "uint256",
          "name": "",
          "type": "uint256"
        }
      ],
      "name": "freelancerJobs",
      "outputs": [
        {
          "internalType": "uint256",
          "name": "",
          "type": "uint256"
        }
      ],
      "stateMutability": "view",
      "type": "function"
    },
    {
      "inputs": [
        {
          "internalType": "address",
          "name": "_client",
          "type": "address"
        }
      ],
      "name": "getClientJobs",
      "outputs": [
        {
          "internalType": "uint256[]",
          "name": "",
          "type": "uint256[]"
        }
      ],
      "stateMutability": "view",
      "type": "function"
    },
    {
      "inputs": [
        {
          "internalType": "address",
          "name": "_freelancer",
          "type": "address"
        }
      ],
      "name": "getFreelancerJobs",
      "outputs": [
        {
          "internalType": "uint256[]",
          "name": "",
          "type": "uint256[]"
        }
      ],
      "stateMutability": "view",
      "type": "function"
    },
    {
      "inputs": [
        {
          "internalType": "uint256",
          "name": "_jobId",
          "type": "uint256"
        }
      ],
      "name": "getJob",
      "outputs": [
        {
          "components": [
            {
              "internalType": "uint256",
              "name": "id",
              "type": "uint256"
            },
            {
              "internalType": "address",
              "name": "client",
              "type": "address"
            },
            {
              "internalType": "address",
              "name": "assignedFreelancer",
              "type": "address"
            },
            {
              "internalType": "string",
              "name": "title",
              "type": "string"
            },
            {
              "internalType": "string",
              "name": "description",
              "type": "string"
            },
            {
              "internalType": "string",
              "name": "metadataURI",
              "type": "string"
            },
            {
              "internalType": "uint256",
              "name": "budget",
              "type": "uint256"
            },
            {
              "internalType": "uint256",
              "name": "deadline",
              "type": "uint256"
            },
            {
              "internalType": "uint256",
              "name": "createdAt",
              "type": "uint256"
            },
            {
              "internalType": "enum JobManager.JobStatus",
              "name": "status",
              "type": "uint8"
            },
            {
              "internalType": "string[]",
              "name": "requiredSkills",
              "type": "string[]"
            },
            {
              "internalType": "string[]",
              "name": "tags",
              "type": "string[]"
            },
            {
              "internalType": "bool",
              "name": "isUrgent",
              "type": "bool"
            }
          ],
          "internalType": "struct JobManager.Job",
          "name": "",
          "type": "tuple"
        }
      ],
      "stateMutability": "view",
      "type": "function"
    },
    {
      "inputs": [
        {
          "internalType": "uint256",
          "name": "_jobId",
          "type": "uint256"
        }
      ],
      "name": "getJobApplications",
      "outputs": [
        {
          "internalType": "uint256[]",
          "name": "",
          "type": "uint256[]"
        }
      ],
      "stateMutability": "view",
      "type": "function"
    },
    {
      "inputs": [
        {
          "internalType": "uint256",
          "name": "jobId",
          "type": "uint256"
        }
      ],
      "name": "getJobDetails",
      "outputs": [
        {
          "internalType": "address",
          "name": "client",
          "type": "address"
        },
        {
          "internalType": "address",
          "name": "freelancer",
          "type": "address"
        },
        {
          "internalType": "uint256",
          "name": "budget",
          "type": "uint256"
        },
        {
          "internalType": "uint8",
          "name": "status",
          "type": "uint8"
        }
      ],
      "stateMutability": "view",
      "type": "function"
    },
    {
      "inputs": [
        {
          "internalType": "bytes32",
          "name": "role",
          "type": "bytes32"
        }
      ],
      "name": "getRoleAdmin",
      "outputs": [
        {
          "internalType": "bytes32",
          "name": "",
          "type": "bytes32"
        }
      ],
      "stateMutability": "view",
      "type": "function"
    },
    {
      "inputs": [],
      "name": "getTotalJobs",
      "outputs": [
        {
          "internalType": "uint256",
          "name": "",
          "type": "uint256"
        }
      ],
      "stateMutability": "view",
      "type": "function"
    },
    {
      "inputs": [
        {
          "internalType": "bytes32",
          "name": "role",
          "type": "bytes32"
        },
        {
          "internalType": "address",
          "name": "account",
          "type": "address"
        }
      ],
      "name": "grantRole",
      "outputs": [],
      "stateMutability": "nonpayable",
      "type": "function"
    },
    {
      "inputs": [
        {
          "internalType": "bytes32",
          "name": "role",
          "type": "bytes32"
        },
        {
          "internalType": "address",
          "name": "account",
          "type": "address"
        }
      ],
      "name": "hasRole",
      "outputs": [
        {
          "internalType": "bool",
          "name": "",
          "type": "bool"
        }
      ],
      "stateMutability": "view",
      "type": "function"
    },
    {
      "inputs": [
        {
          "internalType": "uint256",
          "name": "",
          "type": "uint256"
        },
        {
          "internalType": "uint256",
          "name": "",
          "type": "uint256"
        }
      ],
      "name": "jobApplications",
      "outputs": [
        {
          "internalType": "uint256",
          "name": "",
          "type": "uint256"
        }
      ],
      "stateMutability": "view",
      "type": "function"
    },
    {
      "inputs": [
        {
          "internalType": "uint256",
          "name": "",
          "type": "uint256"
        }
      ],
      "name": "jobs",
      "outputs": [
        {
          "internalType": "uint256",
          "name": "id",
          "type": "uint256"
        },
        {
          "internalType": "address",
          "name": "client",
          "type": "address"
        },
        {
          "internalType": "address",
          "name": "assignedFreelancer",
          "type": "address"
        },
        {
          "internalType": "string",
          "name": "title",
          "type": "string"
        },
        {
          "internalType": "string",
          "name": "description",
          "type": "string"
        },
        {
          "internalType": "string",
          "name": "metadataURI",
          "type": "string"
        },
        {
          "internalType": "uint256",
          "name": "budget",
          "type": "uint256"
        },
        {
          "internalType": "uint256",
          "name": "deadline",
          "type": "uint256"
        },
        {
          "internalType": "uint256",
          "name": "createdAt",
          "type": "uint256"
        },
        {
          "internalType": "enum JobManager.JobStatus",
          "name": "status",
          "type": "uint8"
        },
        {
          "internalType": "bool",
          "name": "isUrgent",
          "type": "bool"
        }
      ],
      "stateMutability": "view",
      "type": "function"
    },
    {
      "inputs": [],
      "name": "paused",
      "outputs": [
        {
          "internalType": "bool",
          "name": "",
          "type": "bool"
        }
      ],
      "stateMutability": "view",
      "type": "function"
    },
    {
      "inputs": [
        {
          "internalType": "string",
          "name": "_title",
          "type": "string"
        },
        {
          "internalType": "string",
          "name": "_description",
          "type": "string"
        },
        {
          "internalType": "string",
          "name": "_metadataURI",
          "type": "string"
        },
        {
          "internalType": "uint256",
          "name": "_budget",
          "type": "uint256"
        },
        {
          "internalType": "uint256",
          "name": "_deadline",
          "type": "uint256"
        },
        {
          "internalType": "string[]",
          "name": "_requiredSkills",
          "type": "string[]"
        },
        {
          "internalType": "string[]",
          "name": "_tags",
          "type": "string[]"
        },
        {
          "internalType": "bool",
          "name": "_isUrgent",
          "type": "bool"
        }
      ],
      "name": "postJob",
      "outputs": [
        {
          "internalType": "uint256",
          "name": "",
          "type": "uint256"
        }
      ],
      "stateMutability": "nonpayable",
      "type": "function"
    },
    {
      "inputs": [],
      "name": "registry",
      "outputs": [
        {
          "internalType": "contract ISafeGigRegistry",
          "name": "",
          "type": "address"
        }
      ],
      "stateMutability": "view",
      "type": "function"
    },
    {
      "inputs": [
        {
          "internalType": "bytes32",
          "name": "role",
          "type": "bytes32"
        },
        {
          "internalType": "address",
          "name": "account",
          "type": "address"
        }
      ],
      "name": "renounceRole",
      "outputs": [],
      "stateMutability": "nonpayable",
      "type": "function"
    },
    {
      "inputs": [
        {
          "internalType": "bytes32",
          "name": "role",
          "type": "bytes32"
        },
        {
          "internalType": "address",
          "name": "account",
          "type": "address"
        }
      ],
      "name": "revokeRole",
      "outputs": [],
      "stateMutability": "nonpayable",
      "type": "function"
    },
    {
      "inputs": [
        {
          "internalType": "uint256",
          "name": "_jobId",
          "type": "uint256"
        }
      ],
      "name": "startWork",
      "outputs": [],
      "stateMutability": "nonpayable",
      "type": "function"
    },
    {
      "inputs": [
        {
          "internalType": "uint256",
          "name": "_jobId",
          "type": "uint256"
        },
        {
          "internalType": "string",
          "name": "_deliveryURI",
          "type": "string"
        }
      ],
      "name": "submitWork",
      "outputs": [],
      "stateMutability": "nonpayable",
      "type": "function"
    },
    {
      "inputs": [
        {
          "internalType": "bytes4",
          "name": "interfaceId",
          "type": "bytes4"
        }
      ],
      "name": "supportsInterface",
      "outputs": [
        {
          "internalType": "bool",
          "name": "",
          "type": "bool"
        }
      ],
      "stateMutability": "view",
      "type": "function"
    },
    {
      "inputs": [
        {
          "internalType": "uint256",
          "name": "_jobId",
          "type": "uint256"
        },
        {
          "internalType": "enum JobManager.JobStatus",
          "name": "_status",
          "type": "uint8"
        }
      ],
      "name": "updateJobStatus",
      "outputs": [],
      "stateMutability": "nonpayable",
      "type": "function"
    }
  ],
  "bytecode": "0x6080346200015857601f62002f8938819003918201601f1916830192916001600160401b038411838510176200015d57808392604095865283396020928391810103126200015857516001600160a01b03811690819003620001585760ff19908160015416600155600160025560018060a01b03196003541617600355600090818052818352838220338352835260ff84832054161562000122575b7fa49807205ce4d355092ef5a8a18f56e8913cf4a201fbe287825b095693c2177592838352828152848320338452815260ff858420541615620000e8575b8451612df59081620001748239f35b8383528281528483209033845252600184832091825416179055339160008051602062002f69833981519152339280a438808080620000d9565b818052818352838220338352835283822060018282541617905533338360008051602062002f698339815191528180a46200009b565b600080fd5b634e487b7160e01b600052604160045260246000fdfe608080604052600436101561001357600080fd5b60003560e01c90816301ffc9a71461244b5750806303a250f9146122f7578063180aedf3146121fe5780632084ea5314611ec7578063248a9ca314611e985780632f2ff15d14611de557806336568abe14611d535780633aee799614611d3557806340f70be414611cbd578063442f5c8814611c735780634cac35c614611b495780635c975abb14611b265780636db0d05014611695578063747143b91461162b57806375b238fc146115f05780637b103999146115c75780638facd8591461157d57806391d1485414611530578063a217fddf14611514578063bf22c457146112cd578063cbc368a814611034578063cf2646c214610fac578063d279a13314610f62578063d547741f14610f21578063d943cdc5146103da578063da8accf914610251578063dfefadff1461019f5763ead39a111461015357600080fd5b3461019a57604036600319011261019a5760243560043560005260086020526040600020805482101561019a5760209161018c91612692565b90546040519160031b1c8152f35b600080fd5b3461019a57602036600319011261019a576004356000526007602052604060002080549060018060a01b03600182015416906101dd60028201612530565b9060038101549161021760048301549160ff600660058601549501541695604051978852602088015260e0604088015260e08701906125f9565b926060860152608085015260a0840152600382101561023b57829160c08301520390f35b634e487b7160e01b600052602160045260246000fd5b3461019a57604036600319011261019a576004356024356001600160401b03811161019a576102849036906004016126c0565b508060005260206006815260406000206102b660018060a01b03918260018201541633149081156103ca575b50612d1e565b826000526006825260ff60096040600020015416600781101561023b5760020361038f5782600052600682523390600260406000200154160361033a577f11b03c284cc2f2f20a0797445fdd3b96339380cd6fbb5a0bf34ba9afa7d702719082600052600681526009604060002001600360ff1982541617905560405160038152a2005b6084906040519062461bcd60e51b82526004820152602860248201527f4f6e6c792061737369676e656420667265656c616e6365722063616e207375626044820152676d697420776f726b60c01b6064820152fd5b60405162461bcd60e51b81526004810183905260136024820152724a6f62206e6f7420696e2070726f677265737360681b6044820152606490fd5b60020154831633149050856102b0565b3461019a5761010036600319011261019a576004356001600160401b03811161019a5761040b9036906004016126c0565b6024356001600160401b03811161019a5761042a9036906004016126c0565b6044356001600160401b03811161019a576104499036906004016126c0565b60a4356001600160401b03811161019a57610468903690600401612789565b60c4356001600160401b03811161019a57610487903690600401612789565b9060e43592831515840361019a57600354604051631f5bdf5d60e01b8152336004820152906001600160a01b0316602082602481845afa908115610ee8576104dc602092602494600091610ef4575b50612b67565b604051638b3f863f60e01b815233600482015292839182905afa8015610ee85760ff91600091610eb9575b501660028114908115610eae575b5015610e5d57610523612c32565b61052b612c76565b855115610e275760643515610de257426084351115610d9d5760045494600186016004556040519661055c886124d8565b868852336020890152600060408901526060880152608087015260a086015260643560c086015260843560e08601524261010086015260006101208601526101408501526101608401521515610180830152806000526006602052604060002091805183556001830160018060a01b03602083015116906bffffffffffffffffffffffff60a01b9182825416179055600284019060018060a01b036040840151169082541617905560608101519283516001600160401b03811161097557610627600383015461249e565b601f8111610d68575b506020601f8211600114610cf9578192939495600092610cee575b50508160011b916000199060031b1c19161760038201555b60808201519283516001600160401b03811161097557610686600484015461249e565b601f8111610cb9575b506020601f8211600114610c4a578192939495600092610c3f575b50508160011b916000199060031b1c19161760048301555b60a08301519283516001600160401b038111610975576106e5600585015461249e565b601f8111610c0a575b506020601f8211600114610b9b578192939495600092610b90575b50508160011b916000199060031b1c19161760058401555b60c0810151600684015560e081015160078401556101008101516008840155610120810151600781101561023b5761075c9060098501612be5565b610140810151805190600160401b821161097557600a85015482600a870155808310610b18575b5060200190600a85016000526020600020916000905b828210610a035750505050610160810151805190600160401b821161097557600b85015482600b87015580831061098b575b5060200190600b85016000526020600020916000905b8282106108555760208686610180600c8b01910151151560ff8019835416911617905533600052600a825261081a816040600020612bfd565b6040516064358152817fe6f2f347838fc981db964da8bbb1855db0ed5008037096e90da474c23b0f432b843393a36001600255604051908152f35b80518051906001600160401b03821161097557610872865461249e565b601f8111610938575b50602090601f83116001146108c85792826001949360209386956000926108bd575b5050600019600383901b1c191690841b1787555b019401910190926107e1565b015190508c8061089d565b908660005260206000209160005b601f1985168110610920575083602093600196938796938794601f19811610610907575b505050811b0187556108b1565b015160001960f88460031b161c191690558c80806108fa565b919260206001819286850151815501940192016108d6565b61096590876000526020600020601f850160051c8101916020861061096b575b601f0160051c0190612bce565b8961087b565b9091508190610958565b634e487b7160e01b600052604160045260246000fd5b600b86016000526020600020908382015b81830181106109ac5750506107cb565b806109b96001925461249e565b806109c6575b500161099c565b601f811183146109dc5750600081555b896109bf565b6000908282526109fa601f60208420920160051c8201858301612bce565b818355556109d6565b80518051906001600160401b03821161097557610a20865461249e565b601f8111610ae6575b50602090601f8311600114610a76579282600194936020938695600092610a6b575b5050600019600383901b1c191690841b1787555b01940191019092610799565b015190508c80610a4b565b908660005260206000209160005b601f1985168110610ace575083602093600196938796938794601f19811610610ab5575b505050811b018755610a5f565b015160001960f88460031b161c191690558c8080610aa8565b91926020600181928685015181550194019201610a84565b610b1290876000526020600020601f850160051c8101916020861061096b57601f0160051c0190612bce565b89610a29565b600a86016000526020600020908382015b8183018110610b39575050610783565b80610b466001925461249e565b80610b53575b5001610b29565b601f81118314610b695750600081555b89610b4c565b600090828252610b87601f60208420920160051c8201858301612bce565b81835555610b63565b015190508580610709565b6005850160005260206000209060005b601f1984168110610bf2575060019394959683601f19811610610bd9575b505050811b016005840155610721565b015160001960f88460031b161c19169055858080610bc9565b9091602060018192858b015181550193019101610bab565b610c3990600586016000526020600020601f840160051c8101916020851061096b57601f0160051c0190612bce565b856106ee565b0151905085806106aa565b6004840160005260206000209060005b601f1984168110610ca1575060019394959683601f19811610610c88575b505050811b0160048301556106c2565b015160001960f88460031b161c19169055858080610c78565b9091602060018192858b015181550193019101610c5a565b610ce890600485016000526020600020601f840160051c8101916020851061096b57601f0160051c0190612bce565b8561068f565b01519050858061064b565b6003830160005260206000209060005b601f1984168110610d50575060019394959683601f19811610610d37575b505050811b016003820155610663565b015160001960f88460031b161c19169055858080610d27565b9091602060018192858b015181550193019101610d09565b610d9790600384016000526020600020601f840160051c8101916020851061096b57601f0160051c0190612bce565b85610630565b60405162461bcd60e51b815260206004820152601e60248201527f446561646c696e65206d75737420626520696e207468652066757475726500006044820152606490fd5b60405162461bcd60e51b815260206004820152601d60248201527f427564676574206d7573742062652067726561746572207468616e20300000006044820152606490fd5b60405162461bcd60e51b815260206004820152600e60248201526d151a5d1b19481c995c5d5a5c995960921b6044820152606490fd5b60405162461bcd60e51b8152602060048201526024808201527f4f6e6c7920636c69656e74732063616e20706572666f726d20746869732061636044820152633a34b7b760e11b6064820152608490fd5b600391501487610515565b610edb915060203d602011610ee1575b610ed3818361250f565b810190612ba9565b88610507565b503d610ec9565b6040513d6000823e3d90fd5b610f149150843d8611610f1a575b610f0c818361250f565b810190612b4f565b8b6104d6565b503d610f02565b3461019a57604036600319011261019a57610f60600435610f4061262b565b90806000526000602052610f5b600160406000200154612809565b6129bc565b005b3461019a57604036600319011261019a57610f7b612641565b6001600160a01b031660009081526009602052604090208054602435919082101561019a5760209161018c91612692565b3461019a5760208060031936011261019a576001600160a01b03610fce612641565b16600052600a8152604060002090604051908181845491828152019360005281600020916000905b82821061101d576110198561100d8189038261250f565b60405191829182612657565b0390f35b835486529485019460019384019390910190610ff6565b3461019a57604036600319011261019a5760043560248035600781101561019a573360009081527f7d7ffb7a348e1c6a02869081a26547b49160dd3df72d1d75a570eb9b698292ec60209081526040909120549092907fa49807205ce4d355092ef5a8a18f56e8913cf4a201fbe287825b095693c217759060ff161561110157847f11b03c284cc2f2f20a0797445fdd3b96339380cd6fbb5a0bf34ba9afa7d70271858583600052600682526110f1816009604060002001612be5565b6110fe604051809261261e565ba2005b839061110c33612a41565b90604051611119816124f4565b604281528381019160603684378151156112b8576030835381516001908110156112a357607860218401536041905b8082116112355750506111f35760486111ef936111c4936111d39360405195869376020b1b1b2b9b9a1b7b73a3937b61d1030b1b1b7bab73a1604d1b8a86015261119b815180928c6037890191016125d6565b8401917001034b99036b4b9b9b4b733903937b6329607d1b6037840152518093868401906125d6565b0103602881018452018261250f565b60405193849362461bcd60e51b855260048501528301906125f9565b0390fd5b606485856040519162461bcd60e51b83528160048401528201527f537472696e67733a20686578206c656e67746820696e73756666696369656e746044820152fd5b9091600f8116601081101561128e576f181899199a1a9b1b9c1cb0b131b232b360811b901a6112648486612a30565b5360041c918015611279576000190190611148565b87634e487b7160e01b60005260116004526000fd5b88634e487b7160e01b60005260326004526000fd5b86634e487b7160e01b60005260326004526000fd5b85634e487b7160e01b60005260326004526000fd5b3461019a57602036600319011261019a5760006101806040516112ef816124d8565b82815282602082015282604082015260608082015260606080820152606060a08201528260c08201528260e082015282610100820152826101208201526060610140820152606061016082015201526004356000526006602052604060002060ff600c6040519261135f846124d8565b8054845260018101546001600160a01b039081166020860152600282015416604085015261138f60038201612530565b60608501526113a060048201612530565b60808501526113b160058201612530565b60a0850152600681015460c0850152600781015460e085015260088101546101008501526113e9836009830154166101208601612bc2565b6113f5600a8201612d6a565b610140850152611407600b8201612d6a565b61016085015201541615156101808201526040518091602082528051602083015260018060a01b03602082015116604083015260018060a01b0360408201511660608301526101806115056114ef6114a261148c61147660608701516101a060808a01526101c08901906125f9565b6080870151888203601f190160a08a01526125f9565b60a0860151878203601f190160c08901526125f9565b60c085015160e087015260e08501516101008701526101008501516101208701526114d761012086015161014088019061261e565b610140850151868203601f1901610160880152612716565b610160840151858203601f190184870152612716565b91015115156101a08301520390f35b3461019a57600036600319011261019a57602060405160008152f35b3461019a57604036600319011261019a5761154961262b565b600435600052600060205260406000209060018060a01b0316600052602052602060ff604060002054166040519015158152f35b3461019a57604036600319011261019a57611596612641565b6001600160a01b03166000908152600a602052604090208054602435919082101561019a5760209161018c91612692565b3461019a57600036600319011261019a576003546040516001600160a01b039091168152602090f35b3461019a57600036600319011261019a5760206040517fa49807205ce4d355092ef5a8a18f56e8913cf4a201fbe287825b095693c217758152f35b3461019a5760208060031936011261019a5760043560005260088152604060002090604051908181845491828152019360005281600020916000905b82821061167e576110198561100d8189038261250f565b835486529485019460019384019390910190611667565b3461019a57608036600319011261019a576004356024356001600160401b03811161019a576116c89036906004016126c0565b600354604051631f5bdf5d60e01b8152336004820152919291604435916001600160a01b0316602082602481845afa908115610ee857611714602092602494600091611b095750612b67565b604051638b3f863f60e01b815233600482015292839182905afa8015610ee85760ff91600091611aea575b501660018114908115611adf575b5015611a895761175b612c32565b611763612c76565b81600052600660205260ff60096040600020015416600781101561023b5761178b9015612cca565b6000828152600660205260409020600101546001600160a01b03163314611a445780156119f05760055490600182016005556040519360e085018581106001600160401b03821117610975576040528385523360208601526040850152606084015260643560808401524260a0840152600060c08401528060005260076020526040600020835181556001810160018060a01b036020860151166bffffffffffffffffffffffff60a01b82541617905560408401518051906001600160401b0382116109755761185e600284015461249e565b601f81116119bb575b50602090601f831160011461194657918060c0949260069460009261193b575b50508160011b916000199060031b1c19161760028201555b606086015160038201556080860151600482015560a086015160058201550193015192600384101561023b5760209360ff8019835416911617905581600052600883526118f0816040600020612bfd565b3360005260098352611906816040600020612bfd565b604051913390827fedeb7362b9cbfebff3f79f6758cf17633efe326e0235b56d51ea2fb5d75a4a90600080a460016002558152f35b015190508880611887565b906002840160005260206000209160005b601f19851681106119a357509260c0949260019260069583601f1981161061198a575b505050811b01600282015561189f565b015160001960f88460031b161c1916905588808061197a565b91926020600181928685015181550194019201611957565b6119ea90600285016000526020600020601f850160051c8101916020861061096b57601f0160051c0190612bce565b86611867565b60405162461bcd60e51b815260206004820152602660248201527f50726f706f73656420627564676574206d75737420626520677265617465722060448201526507468616e20360d41b6064820152608490fd5b60405162461bcd60e51b815260206004820152601760248201527f43616e6e6f74206170706c7920746f206f776e206a6f620000000000000000006044820152606490fd5b60405162461bcd60e51b815260206004820152602860248201527f4f6e6c7920667265656c616e636572732063616e20706572666f726d20746869604482015267399030b1ba34b7b760c11b6064820152608490fd5b60039150148461174d565b611b03915060203d602011610ee157610ed3818361250f565b8561173f565b611b209150843d8611610f1a57610f0c818361250f565b886104d6565b3461019a57600036600319011261019a57602060ff600154166040519015158152f35b3461019a57602036600319011261019a5760043560005260066020526040600020604051611b76816124d8565b8154815260018201546001600160a01b039081166020830190815260028401548216604084019081529291908190611bb060038701612530565b6060850152611bc160048701612530565b6080850152611bd260058701612530565b60a085015260068601549360c08101948552600787015460e0820152600887015461010082015261018060ff600c8160098b01541699611c1761012086019b8c612bc2565b611c23600a8201612d6a565b610140860152611c35600b8201612d6a565b6101608601520154161515910152511692511690519251600781101561023b5760809360ff9260405194855260208501526040840152166060820152f35b3461019a57604036600319011261019a57611c8c612641565b6001600160a01b03166000908152600b602052604090208054602435919082101561019a5760209161018c91612692565b3461019a5760208060031936011261019a576001600160a01b03611cdf612641565b16600052600b8152604060002090604051908181845491828152019360005281600020916000905b828210611d1e576110198561100d8189038261250f565b835486529485019460019384019390910190611d07565b3461019a57600036600319011261019a576020600454604051908152f35b3461019a57604036600319011261019a57611d6c61262b565b336001600160a01b03821603611d8857610f60906004356129bc565b60405162461bcd60e51b815260206004820152602f60248201527f416363657373436f6e74726f6c3a2063616e206f6e6c792072656e6f756e636560448201526e103937b632b9903337b91039b2b63360891b6064820152608490fd5b3461019a57604036600319011261019a57600435611e0161262b565b816000526000602052611e1b600160406000200154612809565b81600052600060205260406000209060018060a01b0316908160005260205260ff6040600020541615611e4a57005b8160005260006020526040600020816000526020526040600020600160ff1982541617905533917f2f8788117e7eff1d82e926ec794901d17c78024a50270940304540a733656f0d600080a4005b3461019a57602036600319011261019a5760043560005260006020526020600160406000200154604051908152f35b3461019a57602036600319011261019a57611ee0612c32565b611ee8612c76565b6004356000526007602052604060002080546000526006602052604060002060018060a01b0360018201541633036121aa5760ff600982015416600781101561023b57611f359015612cca565b60068201805460ff8116600381101561023b576121655760ff19908116600190811790925583820180546002850180546001600160a01b0319166001600160a01b039283161790556009850180549093169093179091556003840154600684015560048401546007909301929092559054166000908152600b602052604090208154611fc091612bfd565b8054600052600860205260406000206040518082602082945493848152019060005260206000209260005b81811061214c5750506120009250038261250f565b60005b81518110156120de576004356120198284612d0a565b511415806120af575b61204e575b600019811461203857600101612003565b634e487b7160e01b600052601160045260246000fd5b6120588183612d0a565b5160005260076020526006604060002001600260ff1982541617905561207e8183612d0a565b517fff4a6914fb0bd4cf4c39007d7b466f7f23390a82dc170649a4e3f9e893f1311f602060405160028152a2612027565b506120ba8183612d0a565b51600052600760205260ff60066040600020015416600381101561023b5715612022565b82604051600181527fff4a6914fb0bd4cf4c39007d7b466f7f23390a82dc170649a4e3f9e893f1311f602060043592a280546001909101546001600160a01b0316907f3738a681a43a0b6a554742a08bae57e0215e8a774217dc2e7de6c9411b6d0ddc600080a36001600255005b8454835260019485019486945060209093019201611feb565b60405162461bcd60e51b815260206004820152601760248201527f4170706c69636174696f6e206e6f742070656e64696e670000000000000000006044820152606490fd5b60405162461bcd60e51b815260206004820152602660248201527f4f6e6c79206a6f62206f776e65722063616e20616363657074206170706c69636044820152656174696f6e7360d01b6064820152608490fd5b3461019a57602036600319011261019a5760043560009081526006602052604090208054600182015460028301546001600160a01b0391821693911661224660038301612530565b9161225360048201612530565b9261226060058301612530565b93600683015494600784015491600885015493600986015460ff1695600c015460ff16966040519a8b9a8b5260208b015260408a01526101608060608b015289016122aa916125f9565b88810360808a01526122bb916125f9565b87810360a08901526122cc916125f9565b9460c087015260e086015261010085015261012084016122eb9161261e565b15156101408301520390f35b3461019a5760208060031936011261019a57600435908160005260068152604060002061233b60018060a01b03918260018201541633149081156103ca5750612d1e565b826000526006825260ff60096040600020015416600781101561023b57600103612413578260005260068252339060026040600020015416036123bf577f11b03c284cc2f2f20a0797445fdd3b96339380cd6fbb5a0bf34ba9afa7d702719082600052600681526009604060002001600260ff1982541617905560405160028152a2005b6084906040519062461bcd60e51b82526004820152602760248201527f4f6e6c792061737369676e656420667265656c616e6365722063616e20737461604482015266727420776f726b60c81b6064820152fd5b60405162461bcd60e51b815260048101839052601060248201526f129bd8881b9bdd08185cdcda59db995960821b6044820152606490fd5b3461019a57602036600319011261019a576004359063ffffffff60e01b821680920361019a57602091637965db0b60e01b811490811561248d575b5015158152f35b6301ffc9a760e01b14905083612486565b90600182811c921680156124ce575b60208310146124b857565b634e487b7160e01b600052602260045260246000fd5b91607f16916124ad565b6101a081019081106001600160401b0382111761097557604052565b608081019081106001600160401b0382111761097557604052565b90601f801991011681019081106001600160401b0382111761097557604052565b90604051918260008254926125448461249e565b9081845260019485811690816000146125b35750600114612570575b505061256e9250038361250f565b565b9093915060005260209081600020936000915b81831061259b57505061256e93508201013880612560565b85548884018501529485019487945091830191612583565b91505061256e94506020925060ff191682840152151560051b8201013880612560565b60005b8381106125e95750506000910152565b81810151838201526020016125d9565b90602091612612815180928185528580860191016125d6565b601f01601f1916010190565b90600782101561023b5752565b602435906001600160a01b038216820361019a57565b600435906001600160a01b038216820361019a57565b6020908160408183019282815285518094520193019160005b82811061267e575050505090565b835185529381019392810192600101612670565b80548210156126aa5760005260206000200190600090565b634e487b7160e01b600052603260045260246000fd5b81601f8201121561019a578035906001600160401b03821161097557604051926126f4601f8401601f19166020018561250f565b8284526020838301011161019a57816000926020809301838601378301015290565b908082519081815260208091019281808460051b8301019501936000915b8483106127445750505050505090565b9091929394958480612762600193601f198682030187528a516125f9565b9801930193019194939290612734565b6001600160401b0381116109755760051b60200190565b9080601f8301121561019a578135906127a182612772565b926127af604051948561250f565b828452602092838086019160051b8301019280841161019a57848301915b8483106127dd5750505050505090565b82356001600160401b03811161019a5786916127fe848480948901016126c0565b8152019201916127cd565b600090808252602090828252604092838120338252835260ff8482205416156128325750505050565b61283b33612a41565b91845190612848826124f4565b604282528482019260603685378251156129a857603084538251906001918210156129a85790607860218501536041915b81831161293a575050506128f85760486111ef9386936128dc936128cd985198899376020b1b1b2b9b9a1b7b73a3937b61d1030b1b1b7bab73a1604d1b8a86015261119b815180928c6037890191016125d6565b0103602881018752018561250f565b5192839262461bcd60e51b8452600484015260248301906125f9565b60648486519062461bcd60e51b825280600483015260248201527f537472696e67733a20686578206c656e67746820696e73756666696369656e746044820152fd5b909192600f81166010811015612994576f181899199a1a9b1b9c1cb0b131b232b360811b901a61296a8587612a30565b5360041c92801561298057600019019190612879565b634e487b7160e01b82526011600452602482fd5b634e487b7160e01b83526032600452602483fd5b634e487b7160e01b81526032600452602490fd5b9060009180835282602052604083209160018060a01b03169182845260205260ff6040842054166129ec57505050565b80835282602052604083208284526020526040832060ff1981541690557ff6391f5c32d9c69d2a47ea670b442974b53935d1edc7fd64eb21e047a839171b339380a4565b9081518110156126aa570160200190565b60405190606082018281106001600160401b0382111761097557604052602a82526020820160403682378251156126aa576030905381516001908110156126aa57607860218401536029905b808211612ae1575050612a9d5790565b606460405162461bcd60e51b815260206004820152602060248201527f537472696e67733a20686578206c656e67746820696e73756666696369656e746044820152fd5b9091600f81166010811015612b3a576f181899199a1a9b1b9c1cb0b131b232b360811b901a612b108486612a30565b5360041c918015612b25576000190190612a8d565b60246000634e487b7160e01b81526011600452fd5b60246000634e487b7160e01b81526032600452fd5b9081602091031261019a5751801515810361019a5790565b15612b6e57565b60405162461bcd60e51b8152602060048201526013602482015272155cd95c881b9bdd081c9959da5cdd195c9959606a1b6044820152606490fd5b9081602091031261019a575160ff8116810361019a5790565b600782101561023b5752565b818110612bd9575050565b60008155600101612bce565b90600781101561023b5760ff80198354169116179055565b8054600160401b81101561097557612c1a91600182018155612692565b819291549060031b91821b91600019901b1916179055565b60ff60015416612c3e57565b60405162461bcd60e51b815260206004820152601060248201526f14185d5cd8589b194e881c185d5cd95960821b6044820152606490fd5b6002805414612c855760028055565b60405162461bcd60e51b815260206004820152601f60248201527f5265656e7472616e637947756172643a207265656e7472616e742063616c6c006044820152606490fd5b15612cd157565b60405162461bcd60e51b81526020600482015260116024820152704a6f62206e6f7420617661696c61626c6560781b6044820152606490fd5b80518210156126aa5760209160051b010190565b15612d2557565b60405162461bcd60e51b815260206004820152601b60248201527f4e6f7420617574686f72697a656420666f722074686973206a6f6200000000006044820152606490fd5b908154612d7681612772565b92612d84604051948561250f565b818452600090815260208082208186015b848410612da3575050505050565b6001838192612db185612530565b815201920193019290612d9556fea2646970667358221220142eb0d7014162249d0fcc0fb45bc5c961abb844eda4ed63766b38a09a5e8a6f64736f6c634300081300332f8788117e7eff1d82e926ec794901d17c78024a50270940304540a733656f0d",
  "linkReferences": {},
  "deployedLinkReferences": {}
}