{
  "_format": "hh-sol-artifact-1",
  "contractName": "SafeGigRegistry",
  "sourceName": "contracts/SafeGigRegistry.sol",
  "abi": [
    {
      "inputs": [],
      "stateMutability": "nonpayable",
      "type": "constructor"
    },
    {
      "anonymous": false,
      "inputs": [
        {
          "indexed": false,
          "internalType": "address",
          "name": "account",
          "type": "address"
        }
      ],
      "name": "Paused",
      "type": "event"
    },
    {
      "anonymous": false,
      "inputs": [
        {
          "indexed": true,
          "internalType": "address",
          "name": "user",
          "type": "address"
        },
        {
          "indexed": false,
          "internalType": "string",
          "name": "metadataURI",
          "type": "string"
        }
      ],
      "name": "ProfileUpdated",
      "type": "event"
    },
    {
      "anonymous": false,
      "inputs": [
        {
          "indexed": true,
          "internalType": "bytes32",
          "name": "role",
          "type": "bytes32"
        },
        {
          "indexed": true,
          "internalType": "bytes32",
          "name": "previousAdminRole",
          "type": "bytes32"
        },
        {
          "indexed": true,
          "internalType": "bytes32",
          "name": "newAdminRole",
          "type": "bytes32"
        }
      ],
      "name": "RoleAdminChanged",
      "type": "event"
    },
    {
      "anonymous": false,
      "inputs": [
        {
          "indexed": true,
          "internalType": "bytes32",
          "name": "role",
          "type": "bytes32"
        },
        {
          "indexed": true,
          "internalType": "address",
          "name": "account",
          "type": "address"
        },
        {
          "indexed": true,
          "internalType": "address",
          "name": "sender",
          "type": "address"
        }
      ],
      "name": "RoleGranted",
      "type": "event"
    },
    {
      "anonymous": false,
      "inputs": [
        {
          "indexed": true,
          "internalType": "bytes32",
          "name": "role",
          "type": "bytes32"
        },
        {
          "indexed": true,
          "internalType": "address",
          "name": "account",
          "type": "address"
        },
        {
          "indexed": true,
          "internalType": "address",
          "name": "sender",
          "type": "address"
        }
      ],
      "name": "RoleRevoked",
      "type": "event"
    },
    {
      "anonymous": false,
      "inputs": [
        {
          "indexed": true,
          "internalType": "address",
          "name": "user",
          "type": "address"
        },
        {
          "indexed": false,
          "internalType": "enum SafeGigRegistry.UserType",
          "name": "userType",
          "type": "uint8"
        }
      ],
      "name": "StatsUpdated",
      "type": "event"
    },
    {
      "anonymous": false,
      "inputs": [
        {
          "indexed": false,
          "internalType": "address",
          "name": "account",
          "type": "address"
        }
      ],
      "name": "Unpaused",
      "type": "event"
    },
    {
      "anonymous": false,
      "inputs": [
        {
          "indexed": true,
          "internalType": "address",
          "name": "user",
          "type": "address"
        },
        {
          "indexed": false,
          "internalType": "enum SafeGigRegistry.UserType",
          "name": "userType",
          "type": "uint8"
        },
        {
          "indexed": false,
          "internalType": "uint256",
          "name": "timestamp",
          "type": "uint256"
        }
      ],
      "name": "UserRegistered",
      "type": "event"
    },
    {
      "anonymous": false,
      "inputs": [
        {
          "indexed": true,
          "internalType": "address",
          "name": "user",
          "type": "address"
        }
      ],
      "name": "UserVerified",
      "type": "event"
    },
    {
      "inputs": [],
      "name": "ADMIN_ROLE",
      "outputs": [
        {
          "internalType": "bytes32",
          "name": "",
          "type": "bytes32"
        }
      ],
      "stateMutability": "view",
      "type": "function"
    },
    {
      "inputs": [],
      "name": "DEFAULT_ADMIN_ROLE",
      "outputs": [
        {
          "internalType": "bytes32",
          "name": "",
          "type": "bytes32"
        }
      ],
      "stateMutability": "view",
      "type": "function"
    },
    {
      "inputs": [],
      "name": "MODERATOR_ROLE",
      "outputs": [
        {
          "internalType": "bytes32",
          "name": "",
          "type": "bytes32"
        }
      ],
      "stateMutability": "view",
      "type": "function"
    },
    {
      "inputs": [
        {
          "internalType": "address",
          "name": "",
          "type": "address"
        }
      ],
      "name": "clientStats",
      "outputs": [
        {
          "internalType": "uint256",
          "name": "totalSpent",
          "type": "uint256"
        },
        {
          "internalType": "uint256",
          "name": "jobsPosted",
          "type": "uint256"
        },
        {
          "internalType": "uint256",
          "name": "jobsCompleted",
          "type": "uint256"
        },
        {
          "internalType": "uint256",
          "name": "responseTime",
          "type": "uint256"
        }
      ],
      "stateMutability": "view",
      "type": "function"
    },
    {
      "inputs": [
        {
          "internalType": "address",
          "name": "",
          "type": "address"
        }
      ],
      "name": "freelancerStats",
      "outputs": [
        {
          "internalType": "uint256",
          "name": "jobsCompleted",
          "type": "uint256"
        },
        {
          "internalType": "uint256",
          "name": "totalEarned",
          "type": "uint256"
        },
        {
          "internalType": "uint256",
          "name": "successRate",
          "type": "uint256"
        },
        {
          "internalType": "uint256",
          "name": "responseTime",
          "type": "uint256"
        },
        {
          "internalType": "uint256",
          "name": "hourlyRate",
          "type": "uint256"
        }
      ],
      "stateMutability": "view",
      "type": "function"
    },
    {
      "inputs": [
        {
          "internalType": "bytes32",
          "name": "role",
          "type": "bytes32"
        }
      ],
      "name": "getRoleAdmin",
      "outputs": [
        {
          "internalType": "bytes32",
          "name": "",
          "type": "bytes32"
        }
      ],
      "stateMutability": "view",
      "type": "function"
    },
    {
      "inputs": [],
      "name": "getTotalUsers",
      "outputs": [
        {
          "internalType": "uint256",
          "name": "",
          "type": "uint256"
        }
      ],
      "stateMutability": "view",
      "type": "function"
    },
    {
      "inputs": [
        {
          "internalType": "address",
          "name": "user",
          "type": "address"
        }
      ],
      "name": "getUserProfile",
      "outputs": [
        {
          "internalType": "string",
          "name": "",
          "type": "string"
        }
      ],
      "stateMutability": "view",
      "type": "function"
    },
    {
      "inputs": [
        {
          "internalType": "address",
          "name": "user",
          "type": "address"
        }
      ],
      "name": "getUserType",
      "outputs": [
        {
          "internalType": "uint8",
          "name": "",
          "type": "uint8"
        }
      ],
      "stateMutability": "view",
      "type": "function"
    },
    {
      "inputs": [
        {
          "internalType": "bytes32",
          "name": "role",
          "type": "bytes32"
        },
        {
          "internalType": "address",
          "name": "account",
          "type": "address"
        }
      ],
      "name": "grantRole",
      "outputs": [],
      "stateMutability": "nonpayable",
      "type": "function"
    },
    {
      "inputs": [
        {
          "internalType": "bytes32",
          "name": "role",
          "type": "bytes32"
        },
        {
          "internalType": "address",
          "name": "account",
          "type": "address"
        }
      ],
      "name": "hasRole",
      "outputs": [
        {
          "internalType": "bool",
          "name": "",
          "type": "bool"
        }
      ],
      "stateMutability": "view",
      "type": "function"
    },
    {
      "inputs": [
        {
          "internalType": "address",
          "name": "user",
          "type": "address"
        }
      ],
      "name": "isRegisteredUser",
      "outputs": [
        {
          "internalType": "bool",
          "name": "",
          "type": "bool"
        }
      ],
      "stateMutability": "view",
      "type": "function"
    },
    {
      "inputs": [],
      "name": "pause",
      "outputs": [],
      "stateMutability": "nonpayable",
      "type": "function"
    },
    {
      "inputs": [],
      "name": "paused",
      "outputs": [
        {
          "internalType": "bool",
          "name": "",
          "type": "bool"
        }
      ],
      "stateMutability": "view",
      "type": "function"
    },
    {
      "inputs": [
        {
          "internalType": "address",
          "name": "",
          "type": "address"
        }
      ],
      "name": "ratingCounts",
      "outputs": [
        {
          "internalType": "uint256",
          "name": "",
          "type": "uint256"
        }
      ],
      "stateMutability": "view",
      "type": "function"
    },
    {
      "inputs": [
        {
          "internalType": "enum SafeGigRegistry.UserType",
          "name": "_userType",
          "type": "uint8"
        },
        {
          "internalType": "string",
          "name": "_metadataURI",
          "type": "string"
        },
        {
          "internalType": "string",
          "name": "_location",
          "type": "string"
        },
        {
          "internalType": "string[]",
          "name": "_skills",
          "type": "string[]"
        }
      ],
      "name": "registerUser",
      "outputs": [],
      "stateMutability": "nonpayable",
      "type": "function"
    },
    {
      "inputs": [
        {
          "internalType": "bytes32",
          "name": "role",
          "type": "bytes32"
        },
        {
          "internalType": "address",
          "name": "account",
          "type": "address"
        }
      ],
      "name": "renounceRole",
      "outputs": [],
      "stateMutability": "nonpayable",
      "type": "function"
    },
    {
      "inputs": [
        {
          "internalType": "bytes32",
          "name": "role",
          "type": "bytes32"
        },
        {
          "internalType": "address",
          "name": "account",
          "type": "address"
        }
      ],
      "name": "revokeRole",
      "outputs": [],
      "stateMutability": "nonpayable",
      "type": "function"
    },
    {
      "inputs": [
        {
          "internalType": "bytes4",
          "name": "interfaceId",
          "type": "bytes4"
        }
      ],
      "name": "supportsInterface",
      "outputs": [
        {
          "internalType": "bool",
          "name": "",
          "type": "bool"
        }
      ],
      "stateMutability": "view",
      "type": "function"
    },
    {
      "inputs": [],
      "name": "unpause",
      "outputs": [],
      "stateMutability": "nonpayable",
      "type": "function"
    },
    {
      "inputs": [
        {
          "internalType": "address",
          "name": "_client",
          "type": "address"
        },
        {
          "internalType": "uint256",
          "name": "_totalSpent",
          "type": "uint256"
        },
        {
          "internalType": "uint256",
          "name": "_jobsPosted",
          "type": "uint256"
        },
        {
          "internalType": "uint256",
          "name": "_jobsCompleted",
          "type": "uint256"
        },
        {
          "internalType": "uint256",
          "name": "_responseTime",
          "type": "uint256"
        }
      ],
      "name": "updateClientStats",
      "outputs": [],
      "stateMutability": "nonpayable",
      "type": "function"
    },
    {
      "inputs": [
        {
          "internalType": "address",
          "name": "_freelancer",
          "type": "address"
        },
        {
          "internalType": "uint256",
          "name": "_jobsCompleted",
          "type": "uint256"
        },
        {
          "internalType": "uint256",
          "name": "_totalEarned",
          "type": "uint256"
        },
        {
          "internalType": "uint256",
          "name": "_successRate",
          "type": "uint256"
        },
        {
          "internalType": "uint256",
          "name": "_responseTime",
          "type": "uint256"
        },
        {
          "internalType": "uint256",
          "name": "_hourlyRate",
          "type": "uint256"
        }
      ],
      "name": "updateFreelancerStats",
      "outputs": [],
      "stateMutability": "nonpayable",
      "type": "function"
    },
    {
      "inputs": [
        {
          "internalType": "string",
          "name": "_metadataURI",
          "type": "string"
        },
        {
          "internalType": "string",
          "name": "_location",
          "type": "string"
        },
        {
          "internalType": "string[]",
          "name": "_skills",
          "type": "string[]"
        }
      ],
      "name": "updateProfile",
      "outputs": [],
      "stateMutability": "nonpayable",
      "type": "function"
    },
    {
      "inputs": [
        {
          "internalType": "address",
          "name": "",
          "type": "address"
        }
      ],
      "name": "userProfiles",
      "outputs": [
        {
          "internalType": "string",
          "name": "metadataURI",
          "type": "string"
        },
        {
          "internalType": "enum SafeGigRegistry.UserType",
          "name": "userType",
          "type": "uint8"
        },
        {
          "internalType": "uint256",
          "name": "registrationTime",
          "type": "uint256"
        },
        {
          "internalType": "bool",
          "name": "isActive",
          "type": "bool"
        },
        {
          "internalType": "bool",
          "name": "isVerified",
          "type": "bool"
        },
        {
          "internalType": "string",
          "name": "location",
          "type": "string"
        }
      ],
      "stateMutability": "view",
      "type": "function"
    },
    {
      "inputs": [
        {
          "internalType": "address",
          "name": "",
          "type": "address"
        }
      ],
      "name": "userRatings",
      "outputs": [
        {
          "internalType": "uint256",
          "name": "",
          "type": "uint256"
        }
      ],
      "stateMutability": "view",
      "type": "function"
    },
    {
      "inputs": [
        {
          "internalType": "address",
          "name": "_user",
          "type": "address"
        }
      ],
      "name": "verifyUser",
      "outputs": [],
      "stateMutability": "nonpayable",
      "type": "function"
    }
  ],
  "bytecode": "0x60806040818152346100f45760ff19806001541660015560016002556000908180526020828152838320338452815260ff8484205416156100bf575b7fa49807205ce4d355092ef5a8a18f56e8913cf4a201fbe287825b095693c2177593848452838252808420338552825260ff818520541615610085575b611f5e8681620000fa8239f35b6001918585528481528185209033865252832091825416179055339160008051602062002058833981519152339280a43880808080610078565b8280528281528383203384528152838320600183825416179055333384600080516020620020588339815191528180a461003b565b600080fdfe608080604052600436101561001357600080fd5b60003560e01c90816301ffc9a71461173757508063155a0a88146116d15780631f5bdf5d1461168557806320cb4e111461164b578063248a9ca31461161c5780632f2ff15d14611569578063332d56d7146114be57806336568abe1461142c5780633f4ba83a146113985780634020d9e814610d0e5780634306b98514610c555780634d813120146109dd5780635ab6e437146109155780635c975abb146108f257806375b238fc146108b7578063797669c91461087c5780638456cb59146108235780638b3f863f146107d9578063900f58fc1461079f57806391d1485414610752578063987ee156146107005780639be572f6146106e2578063a217fddf146106c6578063d547741f14610685578063d90ba4dc146106295763f34c5b861461013d57600080fd5b34610624576060366003190112610624576004356001600160401b0381116106245761016d903690600401611927565b6024356001600160401b0381116106245761018c903690600401611927565b906044356001600160401b038111610624576101ac90369060040161197d565b33600052600360205260ff60016040600020015416600481101561060e576101d5901515611ee6565b336000526003602052604060002082516001600160401b038111610439576101fd82546117b6565b601f81116105dc575b50806020601f82116001146105755760009161056a575b508160011b916000199060031b1c19161790555b336000526003602052600460406000200183516001600160401b0381116104395761025c82546117b6565b601f8111610538575b506020601f82116001146104cf5781929394956000926104c4575b50508160011b916000199060031b1c19161790555b336000526003602052600560406000200190805190600160401b821161043957825482845580831061044f575b50602001916000526020600020916000905b82821061031957847fdd635a4cd84864e37e4479dbfc2ec667acfa473c83c8422a8ac9d9d07599b01c6040516020815280610314339460208301906118f5565b0390a2005b80518051906001600160401b0382116104395761033686546117b6565b601f81116103fc575b50602090601f831160011461038c579282600194936020938695600092610381575b5050600019600383901b1c191690841b1787555b019401910190926102d4565b015190503880610361565b908660005260206000209160005b601f19851681106103e4575083602093600196938796938794601f198116106103cb575b505050811b018755610375565b015160001960f88460031b161c191690553880806103be565b9192602060018192868501518155019401920161039a565b61042990876000526020600020601f850160051c8101916020861061042f575b601f0160051c0190611e8b565b3861033f565b909150819061041c565b634e487b7160e01b600052604160045260246000fd5b836000526020600020908382015b818301811061046d5750506102c2565b8061047a600192546117b6565b80610487575b500161045d565b601f8111831461049d5750600081555b38610480565b6000908282526104bb601f60208420920160051c8201858301611e8b565b81835555610497565b015190503880610280565b8260005260206000209060005b601f1984168110610520575060019394959683601f19811610610507575b505050811b019055610295565b015160001960f88460031b161c191690553880806104fa565b9091602060018192858b0151815501930191016104dc565b61056490836000526020600020601f840160051c8101916020851061042f57601f0160051c0190611e8b565b38610265565b90508401513861021d565b91508260005260206000206000925b601f19831684106105c4576001935082601f198116106105ab575b5050811b019055610231565b86015160001960f88460031b161c19169055388061059f565b86810151825560209384019360019092019101610584565b61060890836000526020600020601f840160051c8101916020851061042f57601f0160051c0190611e8b565b38610206565b634e487b7160e01b600052602160045260246000fd5b600080fd5b34610624576020366003190112610624576001600160a01b0361064a61178a565b166000526005602052608060406000208054906001810154906003600282015491015491604051938452602084015260408301526060820152f35b34610624576040366003190112610624576106c46004356106a46117a0565b908060005260006020526106bf600160406000200154611bee565b611cf8565b005b3461062457600036600319011261062457602060405160008152f35b34610624576000366003190112610624576020600854604051908152f35b34610624576020366003190112610624576001600160a01b0361072161178a565b16600052600360205261074e61073a604060002061182c565b6040519182916020835260208301906118f5565b0390f35b346106245760403660031901126106245761076b6117a0565b600435600052600060205260406000209060018060a01b0316600052602052602060ff604060002054166040519015158152f35b34610624576020366003190112610624576001600160a01b036107c061178a565b1660005260066020526020604060002054604051908152f35b34610624576020366003190112610624576001600160a01b036107fa61178a565b16600052600360205260ff60016040600020015416600481101561060e57602090604051908152f35b346106245760003660031901126106245761083c611a00565b610844611ea2565b600160ff19815416176001557f62e78cea01bee320cd4e420270b5ea74000d11b0c9f74754ebdbfc544b05a2586020604051338152a1005b346106245760003660031901126106245760206040517f71f3d55856e4058ed06ee057d79ada615f65cdf5f9ee88181b914225088f834f8152f35b346106245760003660031901126106245760206040517fa49807205ce4d355092ef5a8a18f56e8913cf4a201fbe287825b095693c217758152f35b3461062457600036600319011261062457602060ff600154166040519015158152f35b346106245760c03660031901126106245761092e61178a565b610936611a00565b60405160a081018181106001600160401b0382111761043957604052602435815260046020820192604435845260408301606435815260608401906084358252608085019260a435845260018060a01b0316958660005284602052604060002095518655516001860155516002850155516003840155519101557f4c6f06e75332768936336a2df54a8c3e7dd4ee1b339232c03af9d8f9fd287587602060405160018152a2005b3461062457602080600319360112610624576109f761178a565b7f71f3d55856e4058ed06ee057d79ada615f65cdf5f9ee88181b914225088f834f8060005260008352604060002033600052835260ff6040600020541615610aaf575060018060a01b031690816000526003815260ff6001604060002001541690600482101561060e57610a6e6003921515611ee6565b8260005252600360406000200161010061ff00198254161790557fa6625d2d26e786e2f473111bea4b2fcdbbf1863d883a2359989ce3a103d2972a600080a2005b82610ab933611d7d565b91604051610ac6816117f0565b60428152828101916060368437815115610c3f57603083538151600190811015610c3f57607860218401536041905b808211610be5575050610ba257610b6e93610b7d9260489260405196879376020b1b1b2b9b9a1b7b73a3937b61d1030b1b1b7bab73a1604d1b88860152610b45815180928a6037890191016118d2565b8401917001034b99036b4b9b9b4b733903937b6329607d1b6037840152518093868401906118d2565b0103602881018552018361180b565b610b9e60405192839262461bcd60e51b8452600484015260248301906118f5565b0390fd5b6064836040519062461bcd60e51b825280600483015260248201527f537472696e67733a20686578206c656e67746820696e73756666696369656e746044820152fd5b9091600f81166010811015610c3f576f181899199a1a9b1b9c1cb0b131b232b360811b901a610c148486611d6c565b5360041c918015610c29576000190190610af5565b634e487b7160e01b600052601160045260246000fd5b634e487b7160e01b600052603260045260246000fd5b346106245760a036600319011261062457610c6e61178a565b610c76611a00565b604051608081018181106001600160401b038211176104395760405260243581526003602082019260443584526040830160643581526060840191608435835260018060a01b031694856000526005602052604060002094518555516001850155516002840155519101557f4c6f06e75332768936336a2df54a8c3e7dd4ee1b339232c03af9d8f9fd287587602060405160028152a2005b3461062457608036600319011261062457600480351015610624576024356001600160401b03811161062457610d48903690600401611927565b6044356001600160401b03811161062457610d67903690600401611927565b6064356001600160401b03811161062457610d8690369060040161197d565b90610d8f611ea2565b600280541461135357600280556004351561131a5733600052600360205260ff60016040600020015416600481101561060e576112d557825115611298576040519260e084018481106001600160401b038211176104395760405283526004356020840152426040840152600160608401526000608084015260a083015260c0820152336000526003602052604060002081519182516001600160401b03811161043957610e3d83546117b6565b601f8111611266575b506020601f82116001146111fe57819293946000926111f3575b50508160011b916000199060031b1c19161782555b6020810151600481101561060e57600183019060ff80198354169116179055604081015160028301556003820160608201511515815460ff61ff006080860151151560081b1692169061ffff19161717905560a08101518051906001600160401b03821161043957610eea60048501546117b6565b601f81116111be575b50602090601f831160011461114b5760c093929160009183611140575b50508160011b916000199060031b1c19161760048401555b0151805190600160401b82116104395760058301548260058501558083106110c8575b5060206005910192016000526020600020916000905b828210610fb357600160085401600855604051610f808160043561191a565b4260208201527feea238307e4577ec1b8645d63505c2d57767cfc074bb5ab579a615525f07a25760403392a26001600255005b80518051906001600160401b03821161043957610fd086546117b6565b601f8111611096575b50602090601f831160011461102657928260019493602093869560009261101b575b5050600019600383901b1c191690841b1787555b01940191019092610f61565b015190508980610ffb565b908660005260206000209160005b601f198516811061107e575083602093600196938796938794601f19811610611065575b505050811b01875561100f565b015160001960f88460031b161c19169055898080611058565b91926020600181928685015181550194019201611034565b6110c290876000526020600020601f850160051c8101916020861061042f57601f0160051c0190611e8b565b86610fd9565b600584016000526020600020908382015b81830181106110e9575050610f4b565b806110f6600192546117b6565b80611103575b50016110d9565b601f811183146111195750600081555b876110fc565b600090828252611137601f60208420920160051c8201858301611e8b565b81835555611113565b015190508580610f10565b906004850160005260206000209160005b601f19851681106111a6575091839160019360c09695601f1981161061118d575b505050811b016004840155610f28565b015160001960f88460031b161c1916905585808061117d565b9192602060018192868501518155019401920161115c565b6111ed90600486016000526020600020601f850160051c8101916020861061042f57601f0160051c0190611e8b565b84610ef3565b015190508480610e60565b8360005260206000209060005b601f198416811061124e5750600193949583601f19811610611235575b505050811b018255610e75565b015160001960f88460031b161c19169055848080611228565b9091602060018192858a01518155019301910161120b565b61129290846000526020600020601f840160051c8101916020851061042f57601f0160051c0190611e8b565b84610e46565b60405162461bcd60e51b815260206004820152601560248201527413595d1859185d1848155492481c995c5d5a5c9959605a1b6044820152606490fd5b60405162461bcd60e51b815260206004820152601760248201527f5573657220616c726561647920726567697374657265640000000000000000006044820152606490fd5b60405162461bcd60e51b8152602060048201526011602482015270496e76616c69642075736572207479706560781b6044820152606490fd5b60405162461bcd60e51b815260206004820152601f60248201527f5265656e7472616e637947756172643a207265656e7472616e742063616c6c006044820152606490fd5b34610624576000366003190112610624576113b1611a00565b60015460ff8116156113f05760ff19166001557f5db9ee0a495bf2e6ff9c91a7834c1ba4fdd244a5e8aa4e537bd38aeae4b073aa6020604051338152a1005b60405162461bcd60e51b815260206004820152601460248201527314185d5cd8589b194e881b9bdd081c185d5cd95960621b6044820152606490fd5b34610624576040366003190112610624576114456117a0565b336001600160a01b03821603611461576106c490600435611cf8565b60405162461bcd60e51b815260206004820152602f60248201527f416363657373436f6e74726f6c3a2063616e206f6e6c792072656e6f756e636560448201526e103937b632b9903337b91039b2b63360891b6064820152608490fd5b34610624576020366003190112610624576001600160a01b036114df61178a565b166000526003602052611537604060002061074e6114fc8261182c565b9160ff6001820154169060ff60028201549161151f60046003830154920161182c565b9261154260405198899860c08a5260c08a01906118f5565b95602089019061191a565b60408701528181161515606087015260081c161515608085015283820360a08501526118f5565b34610624576040366003190112610624576004356115856117a0565b81600052600060205261159f600160406000200154611bee565b81600052600060205260406000209060018060a01b0316908160005260205260ff60406000205416156115ce57005b8160005260006020526040600020816000526020526040600020600160ff1982541617905533917f2f8788117e7eff1d82e926ec794901d17c78024a50270940304540a733656f0d600080a4005b346106245760203660031901126106245760043560005260006020526020600160406000200154604051908152f35b34610624576020366003190112610624576001600160a01b0361166c61178a565b1660005260076020526020604060002054604051908152f35b34610624576020366003190112610624576001600160a01b036116a661178a565b16600052600360205260ff60016040600020015416600481101561060e576020906040519015158152f35b34610624576020366003190112610624576001600160a01b036116f261178a565b16600052600460205260a06040600020805490600181015490600281015460046003830154920154926040519485526020850152604084015260608301526080820152f35b34610624576020366003190112610624576004359063ffffffff60e01b821680920361062457602091637965db0b60e01b8114908115611779575b5015158152f35b6301ffc9a760e01b14905083611772565b600435906001600160a01b038216820361062457565b602435906001600160a01b038216820361062457565b90600182811c921680156117e6575b60208310146117d057565b634e487b7160e01b600052602260045260246000fd5b91607f16916117c5565b608081019081106001600160401b0382111761043957604052565b90601f801991011681019081106001600160401b0382111761043957604052565b9060405191826000825492611840846117b6565b9081845260019485811690816000146118af575060011461186c575b505061186a9250038361180b565b565b9093915060005260209081600020936000915b81831061189757505061186a9350820101388061185c565b8554888401850152948501948794509183019161187f565b91505061186a94506020925060ff191682840152151560051b820101388061185c565b60005b8381106118e55750506000910152565b81810151838201526020016118d5565b9060209161190e815180928185528580860191016118d2565b601f01601f1916010190565b90600482101561060e5752565b81601f82011215610624578035906001600160401b038211610439576040519261195b601f8401601f19166020018561180b565b8284526020838301011161062457816000926020809301838601378301015290565b9080601f83011215610624578135906001600160401b0392838311610439578260051b604051946020946119b38684018861180b565b865284808701928401019380851161062457858401925b8584106119db575050505050505090565b83358381116106245787916119f5848480948a0101611927565b8152019301926119ca565b3360009081527f7d7ffb7a348e1c6a02869081a26547b49160dd3df72d1d75a570eb9b698292ec602090815260408083205490927fa49807205ce4d355092ef5a8a18f56e8913cf4a201fbe287825b095693c217759160ff1615611a645750505050565b611a6d33611d7d565b91845190611a7a826117f0565b60428252848201926060368537825115611bda5760308453825190600191821015611bda5790607860218501536041915b818311611b6c57505050611b2a576048610b9e938693611b0e93611aff985198899376020b1b1b2b9b9a1b7b73a3937b61d1030b1b1b7bab73a1604d1b8a860152610b45815180928c6037890191016118d2565b0103602881018752018561180b565b5192839262461bcd60e51b8452600484015260248301906118f5565b60648486519062461bcd60e51b825280600483015260248201527f537472696e67733a20686578206c656e67746820696e73756666696369656e746044820152fd5b909192600f81166010811015611bc6576f181899199a1a9b1b9c1cb0b131b232b360811b901a611b9c8587611d6c565b5360041c928015611bb257600019019190611aab565b634e487b7160e01b82526011600452602482fd5b634e487b7160e01b83526032600452602483fd5b634e487b7160e01b81526032600452602490fd5b600090808252602090828252604092838120338252835260ff848220541615611c175750505050565b611c2033611d7d565b91845190611c2d826117f0565b60428252848201926060368537825115611bda5760308453825190600191821015611bda5790607860218501536041915b818311611cb257505050611b2a576048610b9e938693611b0e93611aff985198899376020b1b1b2b9b9a1b7b73a3937b61d1030b1b1b7bab73a1604d1b8a860152610b45815180928c6037890191016118d2565b909192600f81166010811015611bc6576f181899199a1a9b1b9c1cb0b131b232b360811b901a611ce28587611d6c565b5360041c928015611bb257600019019190611c5e565b9060009180835282602052604083209160018060a01b03169182845260205260ff604084205416611d2857505050565b80835282602052604083208284526020526040832060ff1981541690557ff6391f5c32d9c69d2a47ea670b442974b53935d1edc7fd64eb21e047a839171b339380a4565b908151811015610c3f570160200190565b60405190606082018281106001600160401b0382111761043957604052602a8252602082016040368237825115610c3f57603090538151600190811015610c3f57607860218401536029905b808211611e1d575050611dd95790565b606460405162461bcd60e51b815260206004820152602060248201527f537472696e67733a20686578206c656e67746820696e73756666696369656e746044820152fd5b9091600f81166010811015611e76576f181899199a1a9b1b9c1cb0b131b232b360811b901a611e4c8486611d6c565b5360041c918015611e61576000190190611dc9565b60246000634e487b7160e01b81526011600452fd5b60246000634e487b7160e01b81526032600452fd5b818110611e96575050565b60008155600101611e8b565b60ff60015416611eae57565b60405162461bcd60e51b815260206004820152601060248201526f14185d5cd8589b194e881c185d5cd95960821b6044820152606490fd5b15611eed57565b60405162461bcd60e51b8152602060048201526013602482015272155cd95c881b9bdd081c9959da5cdd195c9959606a1b6044820152606490fdfea264697066735822122005d5ef6768ae523bb9d6d5e56f384721a099962c4ffe30d65d2f3021abf7b8b264736f6c634300081300332f8788117e7eff1d82e926ec794901d17c78024a50270940304540a733656f0d",
  "linkReferences": {},
  "deployedLinkReferences": {}
}