{
  "_format": "hh-sol-artifact-1",
  "contractName": "SafeGigRegistry",
  "sourceName": "contracts/SafeGigRegistry.sol",
  "abi": [
    {
      "inputs": [],
      "stateMutability": "nonpayable",
      "type": "constructor"
    },
    {
      "anonymous": false,
      "inputs": [
        {
          "indexed": false,
          "internalType": "address",
          "name": "account",
          "type": "address"
        }
      ],
      "name": "Paused",
      "type": "event"
    },
    {
      "anonymous": false,
      "inputs": [
        {
          "indexed": true,
          "internalType": "address",
          "name": "user",
          "type": "address"
        },
        {
          "indexed": false,
          "internalType": "string",
          "name": "metadataURI",
          "type": "string"
        }
      ],
      "name": "ProfileUpdated",
      "type": "event"
    },
    {
      "anonymous": false,
      "inputs": [
        {
          "indexed": true,
          "internalType": "bytes32",
          "name": "role",
          "type": "bytes32"
        },
        {
          "indexed": true,
          "internalType": "bytes32",
          "name": "previousAdminRole",
          "type": "bytes32"
        },
        {
          "indexed": true,
          "internalType": "bytes32",
          "name": "newAdminRole",
          "type": "bytes32"
        }
      ],
      "name": "RoleAdminChanged",
      "type": "event"
    },
    {
      "anonymous": false,
      "inputs": [
        {
          "indexed": true,
          "internalType": "bytes32",
          "name": "role",
          "type": "bytes32"
        },
        {
          "indexed": true,
          "internalType": "address",
          "name": "account",
          "type": "address"
        },
        {
          "indexed": true,
          "internalType": "address",
          "name": "sender",
          "type": "address"
        }
      ],
      "name": "RoleGranted",
      "type": "event"
    },
    {
      "anonymous": false,
      "inputs": [
        {
          "indexed": true,
          "internalType": "bytes32",
          "name": "role",
          "type": "bytes32"
        },
        {
          "indexed": true,
          "internalType": "address",
          "name": "account",
          "type": "address"
        },
        {
          "indexed": true,
          "internalType": "address",
          "name": "sender",
          "type": "address"
        }
      ],
      "name": "RoleRevoked",
      "type": "event"
    },
    {
      "anonymous": false,
      "inputs": [
        {
          "indexed": true,
          "internalType": "address",
          "name": "user",
          "type": "address"
        },
        {
          "indexed": false,
          "internalType": "enum SafeGigRegistry.UserType",
          "name": "userType",
          "type": "uint8"
        }
      ],
      "name": "StatsUpdated",
      "type": "event"
    },
    {
      "anonymous": false,
      "inputs": [
        {
          "indexed": false,
          "internalType": "address",
          "name": "account",
          "type": "address"
        }
      ],
      "name": "Unpaused",
      "type": "event"
    },
    {
      "anonymous": false,
      "inputs": [
        {
          "indexed": true,
          "internalType": "address",
          "name": "user",
          "type": "address"
        },
        {
          "indexed": false,
          "internalType": "enum SafeGigRegistry.UserType",
          "name": "userType",
          "type": "uint8"
        },
        {
          "indexed": false,
          "internalType": "uint256",
          "name": "timestamp",
          "type": "uint256"
        }
      ],
      "name": "UserRegistered",
      "type": "event"
    },
    {
      "anonymous": false,
      "inputs": [
        {
          "indexed": true,
          "internalType": "address",
          "name": "user",
          "type": "address"
        }
      ],
      "name": "UserVerified",
      "type": "event"
    },
    {
      "inputs": [],
      "name": "ADMIN_ROLE",
      "outputs": [
        {
          "internalType": "bytes32",
          "name": "",
          "type": "bytes32"
        }
      ],
      "stateMutability": "view",
      "type": "function"
    },
    {
      "inputs": [],
      "name": "DEFAULT_ADMIN_ROLE",
      "outputs": [
        {
          "internalType": "bytes32",
          "name": "",
          "type": "bytes32"
        }
      ],
      "stateMutability": "view",
      "type": "function"
    },
    {
      "inputs": [],
      "name": "JOB_MANAGER_ROLE",
      "outputs": [
        {
          "internalType": "bytes32",
          "name": "",
          "type": "bytes32"
        }
      ],
      "stateMutability": "view",
      "type": "function"
    },
    {
      "inputs": [],
      "name": "MODERATOR_ROLE",
      "outputs": [
        {
          "internalType": "bytes32",
          "name": "",
          "type": "bytes32"
        }
      ],
      "stateMutability": "view",
      "type": "function"
    },
    {
      "inputs": [
        {
          "internalType": "address",
          "name": "",
          "type": "address"
        }
      ],
      "name": "clientStats",
      "outputs": [
        {
          "internalType": "uint256",
          "name": "totalSpent",
          "type": "uint256"
        },
        {
          "internalType": "uint256",
          "name": "jobsPosted",
          "type": "uint256"
        },
        {
          "internalType": "uint256",
          "name": "jobsCompleted",
          "type": "uint256"
        },
        {
          "internalType": "uint256",
          "name": "responseTime",
          "type": "uint256"
        }
      ],
      "stateMutability": "view",
      "type": "function"
    },
    {
      "inputs": [
        {
          "internalType": "address",
          "name": "",
          "type": "address"
        }
      ],
      "name": "freelancerStats",
      "outputs": [
        {
          "internalType": "uint256",
          "name": "jobsCompleted",
          "type": "uint256"
        },
        {
          "internalType": "uint256",
          "name": "totalEarned",
          "type": "uint256"
        },
        {
          "internalType": "uint256",
          "name": "successRate",
          "type": "uint256"
        },
        {
          "internalType": "uint256",
          "name": "responseTime",
          "type": "uint256"
        },
        {
          "internalType": "uint256",
          "name": "hourlyRate",
          "type": "uint256"
        }
      ],
      "stateMutability": "view",
      "type": "function"
    },
    {
      "inputs": [
        {
          "internalType": "address",
          "name": "_client",
          "type": "address"
        }
      ],
      "name": "getClientStats",
      "outputs": [
        {
          "components": [
            {
              "internalType": "uint256",
              "name": "totalSpent",
              "type": "uint256"
            },
            {
              "internalType": "uint256",
              "name": "jobsPosted",
              "type": "uint256"
            },
            {
              "internalType": "uint256",
              "name": "jobsCompleted",
              "type": "uint256"
            },
            {
              "internalType": "uint256",
              "name": "responseTime",
              "type": "uint256"
            }
          ],
          "internalType": "struct SafeGigRegistry.ClientStats",
          "name": "",
          "type": "tuple"
        }
      ],
      "stateMutability": "view",
      "type": "function"
    },
    {
      "inputs": [
        {
          "internalType": "address",
          "name": "_freelancer",
          "type": "address"
        }
      ],
      "name": "getFreelancerStats",
      "outputs": [
        {
          "components": [
            {
              "internalType": "uint256",
              "name": "jobsCompleted",
              "type": "uint256"
            },
            {
              "internalType": "uint256",
              "name": "totalEarned",
              "type": "uint256"
            },
            {
              "internalType": "uint256",
              "name": "successRate",
              "type": "uint256"
            },
            {
              "internalType": "uint256",
              "name": "responseTime",
              "type": "uint256"
            },
            {
              "internalType": "uint256",
              "name": "hourlyRate",
              "type": "uint256"
            }
          ],
          "internalType": "struct SafeGigRegistry.FreelancerStats",
          "name": "",
          "type": "tuple"
        }
      ],
      "stateMutability": "view",
      "type": "function"
    },
    {
      "inputs": [
        {
          "internalType": "bytes32",
          "name": "role",
          "type": "bytes32"
        }
      ],
      "name": "getRoleAdmin",
      "outputs": [
        {
          "internalType": "bytes32",
          "name": "",
          "type": "bytes32"
        }
      ],
      "stateMutability": "view",
      "type": "function"
    },
    {
      "inputs": [],
      "name": "getTotalUsers",
      "outputs": [
        {
          "internalType": "uint256",
          "name": "",
          "type": "uint256"
        }
      ],
      "stateMutability": "view",
      "type": "function"
    },
    {
      "inputs": [
        {
          "internalType": "address",
          "name": "user",
          "type": "address"
        }
      ],
      "name": "getUserProfile",
      "outputs": [
        {
          "internalType": "string",
          "name": "",
          "type": "string"
        }
      ],
      "stateMutability": "view",
      "type": "function"
    },
    {
      "inputs": [
        {
          "internalType": "address",
          "name": "user",
          "type": "address"
        }
      ],
      "name": "getUserType",
      "outputs": [
        {
          "internalType": "uint8",
          "name": "",
          "type": "uint8"
        }
      ],
      "stateMutability": "view",
      "type": "function"
    },
    {
      "inputs": [
        {
          "internalType": "bytes32",
          "name": "role",
          "type": "bytes32"
        },
        {
          "internalType": "address",
          "name": "account",
          "type": "address"
        }
      ],
      "name": "grantRole",
      "outputs": [],
      "stateMutability": "nonpayable",
      "type": "function"
    },
    {
      "inputs": [
        {
          "internalType": "bytes32",
          "name": "role",
          "type": "bytes32"
        },
        {
          "internalType": "address",
          "name": "account",
          "type": "address"
        }
      ],
      "name": "hasRole",
      "outputs": [
        {
          "internalType": "bool",
          "name": "",
          "type": "bool"
        }
      ],
      "stateMutability": "view",
      "type": "function"
    },
    {
      "inputs": [
        {
          "internalType": "address",
          "name": "user",
          "type": "address"
        }
      ],
      "name": "isRegisteredUser",
      "outputs": [
        {
          "internalType": "bool",
          "name": "",
          "type": "bool"
        }
      ],
      "stateMutability": "view",
      "type": "function"
    },
    {
      "inputs": [],
      "name": "pause",
      "outputs": [],
      "stateMutability": "nonpayable",
      "type": "function"
    },
    {
      "inputs": [],
      "name": "paused",
      "outputs": [
        {
          "internalType": "bool",
          "name": "",
          "type": "bool"
        }
      ],
      "stateMutability": "view",
      "type": "function"
    },
    {
      "inputs": [
        {
          "internalType": "address",
          "name": "",
          "type": "address"
        }
      ],
      "name": "ratingCounts",
      "outputs": [
        {
          "internalType": "uint256",
          "name": "",
          "type": "uint256"
        }
      ],
      "stateMutability": "view",
      "type": "function"
    },
    {
      "inputs": [
        {
          "internalType": "enum SafeGigRegistry.UserType",
          "name": "_userType",
          "type": "uint8"
        },
        {
          "internalType": "string",
          "name": "_metadataURI",
          "type": "string"
        },
        {
          "internalType": "string",
          "name": "_location",
          "type": "string"
        },
        {
          "internalType": "string[]",
          "name": "_skills",
          "type": "string[]"
        }
      ],
      "name": "registerUser",
      "outputs": [],
      "stateMutability": "nonpayable",
      "type": "function"
    },
    {
      "inputs": [
        {
          "internalType": "bytes32",
          "name": "role",
          "type": "bytes32"
        },
        {
          "internalType": "address",
          "name": "account",
          "type": "address"
        }
      ],
      "name": "renounceRole",
      "outputs": [],
      "stateMutability": "nonpayable",
      "type": "function"
    },
    {
      "inputs": [
        {
          "internalType": "bytes32",
          "name": "role",
          "type": "bytes32"
        },
        {
          "internalType": "address",
          "name": "account",
          "type": "address"
        }
      ],
      "name": "revokeRole",
      "outputs": [],
      "stateMutability": "nonpayable",
      "type": "function"
    },
    {
      "inputs": [
        {
          "internalType": "bytes4",
          "name": "interfaceId",
          "type": "bytes4"
        }
      ],
      "name": "supportsInterface",
      "outputs": [
        {
          "internalType": "bool",
          "name": "",
          "type": "bool"
        }
      ],
      "stateMutability": "view",
      "type": "function"
    },
    {
      "inputs": [],
      "name": "unpause",
      "outputs": [],
      "stateMutability": "nonpayable",
      "type": "function"
    },
    {
      "inputs": [
        {
          "internalType": "address",
          "name": "_client",
          "type": "address"
        },
        {
          "internalType": "uint256",
          "name": "_totalSpent",
          "type": "uint256"
        },
        {
          "internalType": "uint256",
          "name": "_jobsPosted",
          "type": "uint256"
        },
        {
          "internalType": "uint256",
          "name": "_jobsCompleted",
          "type": "uint256"
        },
        {
          "internalType": "uint256",
          "name": "_responseTime",
          "type": "uint256"
        }
      ],
      "name": "updateClientStats",
      "outputs": [],
      "stateMutability": "nonpayable",
      "type": "function"
    },
    {
      "inputs": [
        {
          "internalType": "address",
          "name": "_freelancer",
          "type": "address"
        },
        {
          "internalType": "uint256",
          "name": "_jobsCompleted",
          "type": "uint256"
        },
        {
          "internalType": "uint256",
          "name": "_totalEarned",
          "type": "uint256"
        },
        {
          "internalType": "uint256",
          "name": "_successRate",
          "type": "uint256"
        },
        {
          "internalType": "uint256",
          "name": "_responseTime",
          "type": "uint256"
        },
        {
          "internalType": "uint256",
          "name": "_hourlyRate",
          "type": "uint256"
        }
      ],
      "name": "updateFreelancerStats",
      "outputs": [],
      "stateMutability": "nonpayable",
      "type": "function"
    },
    {
      "inputs": [
        {
          "internalType": "string",
          "name": "_metadataURI",
          "type": "string"
        },
        {
          "internalType": "string",
          "name": "_location",
          "type": "string"
        },
        {
          "internalType": "string[]",
          "name": "_skills",
          "type": "string[]"
        }
      ],
      "name": "updateProfile",
      "outputs": [],
      "stateMutability": "nonpayable",
      "type": "function"
    },
    {
      "inputs": [
        {
          "internalType": "address",
          "name": "",
          "type": "address"
        }
      ],
      "name": "userProfiles",
      "outputs": [
        {
          "internalType": "string",
          "name": "metadataURI",
          "type": "string"
        },
        {
          "internalType": "enum SafeGigRegistry.UserType",
          "name": "userType",
          "type": "uint8"
        },
        {
          "internalType": "uint256",
          "name": "registrationTime",
          "type": "uint256"
        },
        {
          "internalType": "bool",
          "name": "isActive",
          "type": "bool"
        },
        {
          "internalType": "bool",
          "name": "isVerified",
          "type": "bool"
        },
        {
          "internalType": "string",
          "name": "location",
          "type": "string"
        }
      ],
      "stateMutability": "view",
      "type": "function"
    },
    {
      "inputs": [
        {
          "internalType": "address",
          "name": "",
          "type": "address"
        }
      ],
      "name": "userRatings",
      "outputs": [
        {
          "internalType": "uint256",
          "name": "",
          "type": "uint256"
        }
      ],
      "stateMutability": "view",
      "type": "function"
    },
    {
      "inputs": [
        {
          "internalType": "address",
          "name": "_user",
          "type": "address"
        }
      ],
      "name": "verifyUser",
      "outputs": [],
      "stateMutability": "nonpayable",
      "type": "function"
    }
  ],
  "bytecode": "0x6080604081815234620000f95760ff19806001541660015560016002556000908180526020828152838320338452815260ff848420541615620000c3575b7fa49807205ce4d355092ef5a8a18f56e8913cf4a201fbe287825b095693c2177593848452838252808420338552825260ff81852054161562000088575b6122558681620000ff8239f35b6001918585528481528185209033865252832091825416179055339160008051602062002354833981519152339280a438808080806200007b565b8280528281528383203384528152838320600183825416179055333384600080516020620023548339815191528180a46200003d565b600080fdfe608080604052600436101561001357600080fd5b60003560e01c90816301ffc9a7146118ce575080631207c03b1461182d578063155a0a88146117c75780631f5bdf5d1461177b57806320cb4e1114611741578063248a9ca3146117125780632f2ff15d1461165f578063332d56d7146115b457806336568abe146115225780633f4ba83a1461148e5780634020d9e814610e045780634306b98514610d5b57806346f1930514610ca15780634d81312014610a295780635ab6e437146109715780635c975abb1461094e57806375b238fc14610913578063797669c9146108d857806380d82d551461089d5780638456cb59146108445780638b3f863f146107fa578063900f58fc146107c057806391d1485414610773578063987ee156146107215780639be572f614610703578063a217fddf146106e7578063d547741f146106a6578063d90ba4dc1461064a5763f34c5b861461015e57600080fd5b34610645576060366003190112610645576004356001600160401b0381116106455761018e903690600401611ad9565b6024356001600160401b038111610645576101ad903690600401611ad9565b906044356001600160401b038111610645576101cd903690600401611b2f565b33600052600360205260ff60016040600020015416600481101561062f576101f69015156121dd565b336000526003602052604060002082516001600160401b03811161045a5761021e825461194d565b601f81116105fd575b50806020601f82116001146105965760009161058b575b508160011b916000199060031b1c19161790555b336000526003602052600460406000200183516001600160401b03811161045a5761027d825461194d565b601f8111610559575b506020601f82116001146104f05781929394956000926104e5575b50508160011b916000199060031b1c19161790555b336000526003602052600560406000200190805190600160401b821161045a578254828455808310610470575b50602001916000526020600020916000905b82821061033a57847fdd635a4cd84864e37e4479dbfc2ec667acfa473c83c8422a8ac9d9d07599b01c604051602081528061033533946020830190611aa7565b0390a2005b80518051906001600160401b03821161045a57610357865461194d565b601f811161041d575b50602090601f83116001146103ad5792826001949360209386956000926103a2575b5050600019600383901b1c191690841b1787555b019401910190926102f5565b015190503880610382565b908660005260206000209160005b601f1985168110610405575083602093600196938796938794601f198116106103ec575b505050811b018755610396565b015160001960f88460031b161c191690553880806103df565b919260206001819286850151815501940192016103bb565b61044a90876000526020600020601f850160051c81019160208610610450575b601f0160051c0190612182565b38610360565b909150819061043d565b634e487b7160e01b600052604160045260246000fd5b836000526020600020908382015b818301811061048e5750506102e3565b8061049b6001925461194d565b806104a8575b500161047e565b601f811183146104be5750600081555b386104a1565b6000908282526104dc601f60208420920160051c8201858301612182565b818355556104b8565b0151905038806102a1565b8260005260206000209060005b601f1984168110610541575060019394959683601f19811610610528575b505050811b0190556102b6565b015160001960f88460031b161c1916905538808061051b565b9091602060018192858b0151815501930191016104fd565b61058590836000526020600020601f840160051c8101916020851061045057601f0160051c0190612182565b38610286565b90508401513861023e565b91508260005260206000206000925b601f19831684106105e5576001935082601f198116106105cc575b5050811b019055610252565b86015160001960f88460031b161c1916905538806105c0565b868101518255602093840193600190920191016105a5565b61062990836000526020600020601f840160051c8101916020851061045057601f0160051c0190612182565b38610227565b634e487b7160e01b600052602160045260246000fd5b600080fd5b34610645576020366003190112610645576001600160a01b0361066b611921565b166000526005602052608060406000208054906001810154906003600282015491015491604051938452602084015260408301526060820152f35b34610645576040366003190112610645576106e56004356106c5611937565b908060005260006020526106e0600160406000200154611ee5565b611fef565b005b3461064557600036600319011261064557602060405160008152f35b34610645576000366003190112610645576020600854604051908152f35b34610645576020366003190112610645576001600160a01b03610742611921565b16600052600360205261076f61075b60406000206119de565b604051918291602083526020830190611aa7565b0390f35b346106455760403660031901126106455761078c611937565b600435600052600060205260406000209060018060a01b0316600052602052602060ff604060002054166040519015158152f35b34610645576020366003190112610645576001600160a01b036107e1611921565b1660005260066020526020604060002054604051908152f35b34610645576020366003190112610645576001600160a01b0361081b611921565b16600052600360205260ff60016040600020015416600481101561062f57602090604051908152f35b346106455760003660031901126106455761085d611bb2565b610865612199565b600160ff19815416176001557f62e78cea01bee320cd4e420270b5ea74000d11b0c9f74754ebdbfc544b05a2586020604051338152a1005b346106455760003660031901126106455760206040517f9314fad2def8e56f9df1fa7f30dc3dafd695603f8f7676a295739a12b879d2f68152f35b346106455760003660031901126106455760206040517f71f3d55856e4058ed06ee057d79ada615f65cdf5f9ee88181b914225088f834f8152f35b346106455760003660031901126106455760206040517fa49807205ce4d355092ef5a8a18f56e8913cf4a201fbe287825b095693c217758152f35b3461064557600036600319011261064557602060ff600154166040519015158152f35b346106455760c03660031901126106455761098a611921565b610992611da0565b60405161099e816119a2565b602435815260046020820192604435845260408301606435815260608401906084358252608085019260a435845260018060a01b0316958660005284602052604060002095518655516001860155516002850155516003840155519101557f4c6f06e75332768936336a2df54a8c3e7dd4ee1b339232c03af9d8f9fd287587602060405160018152a2005b346106455760208060031936011261064557610a43611921565b7f71f3d55856e4058ed06ee057d79ada615f65cdf5f9ee88181b914225088f834f8060005260008352604060002033600052835260ff6040600020541615610afb575060018060a01b031690816000526003815260ff6001604060002001541690600482101561062f57610aba60039215156121dd565b8260005252600360406000200161010061ff00198254161790557fa6625d2d26e786e2f473111bea4b2fcdbbf1863d883a2359989ce3a103d2972a600080a2005b82610b0533612074565b91604051610b1281611987565b60428152828101916060368437815115610c8b57603083538151600190811015610c8b57607860218401536041905b808211610c31575050610bee57610bba93610bc99260489260405196879376020b1b1b2b9b9a1b7b73a3937b61d1030b1b1b7bab73a1604d1b88860152610b91815180928a603789019101611a84565b8401917001034b99036b4b9b9b4b733903937b6329607d1b603784015251809386840190611a84565b010360288101855201836119bd565b610bea60405192839262461bcd60e51b845260048401526024830190611aa7565b0390fd5b6064836040519062461bcd60e51b825280600483015260248201527f537472696e67733a20686578206c656e67746820696e73756666696369656e746044820152fd5b9091600f81166010811015610c8b576f181899199a1a9b1b9c1cb0b131b232b360811b901a610c608486612063565b5360041c918015610c75576000190190610b41565b634e487b7160e01b600052601160045260246000fd5b634e487b7160e01b600052603260045260246000fd5b3461064557602036600319011261064557610cba611921565b60006080604051610cca816119a2565b828152826020820152826040820152826060820152015260018060a01b0316600052600460205260a06040600020604051610d04816119a2565b81549182825260018101546020830190815260028201549060408401918252608060046003850154946060870195865201549401938452604051948552516020850152516040840152516060830152516080820152f35b346106455760a036600319011261064557610d74611921565b610d7c611da0565b604051610d8881611987565b60243581526003602082019260443584526040830160643581526060840191608435835260018060a01b031694856000526005602052604060002094518555516001850155516002840155519101557f4c6f06e75332768936336a2df54a8c3e7dd4ee1b339232c03af9d8f9fd287587602060405160028152a2005b3461064557608036600319011261064557600480351015610645576024356001600160401b03811161064557610e3e903690600401611ad9565b6044356001600160401b03811161064557610e5d903690600401611ad9565b6064356001600160401b03811161064557610e7c903690600401611b2f565b90610e85612199565b60028054146114495760028055600435156114105733600052600360205260ff60016040600020015416600481101561062f576113cb5782511561138e576040519260e084018481106001600160401b0382111761045a5760405283526004356020840152426040840152600160608401526000608084015260a083015260c0820152336000526003602052604060002081519182516001600160401b03811161045a57610f33835461194d565b601f811161135c575b506020601f82116001146112f457819293946000926112e9575b50508160011b916000199060031b1c19161782555b6020810151600481101561062f57600183019060ff80198354169116179055604081015160028301556003820160608201511515815460ff61ff006080860151151560081b1692169061ffff19161717905560a08101518051906001600160401b03821161045a57610fe0600485015461194d565b601f81116112b4575b50602090601f83116001146112415760c093929160009183611236575b50508160011b916000199060031b1c19161760048401555b0151805190600160401b821161045a5760058301548260058501558083106111be575b5060206005910192016000526020600020916000905b8282106110a95760016008540160085560405161107681600435611acc565b4260208201527feea238307e4577ec1b8645d63505c2d57767cfc074bb5ab579a615525f07a25760403392a26001600255005b80518051906001600160401b03821161045a576110c6865461194d565b601f811161118c575b50602090601f831160011461111c579282600194936020938695600092611111575b5050600019600383901b1c191690841b1787555b01940191019092611057565b0151905089806110f1565b908660005260206000209160005b601f1985168110611174575083602093600196938796938794601f1981161061115b575b505050811b018755611105565b015160001960f88460031b161c1916905589808061114e565b9192602060018192868501518155019401920161112a565b6111b890876000526020600020601f850160051c8101916020861061045057601f0160051c0190612182565b866110cf565b600584016000526020600020908382015b81830181106111df575050611041565b806111ec6001925461194d565b806111f9575b50016111cf565b601f8111831461120f5750600081555b876111f2565b60009082825261122d601f60208420920160051c8201858301612182565b81835555611209565b015190508580611006565b906004850160005260206000209160005b601f198516811061129c575091839160019360c09695601f19811610611283575b505050811b01600484015561101e565b015160001960f88460031b161c19169055858080611273565b91926020600181928685015181550194019201611252565b6112e390600486016000526020600020601f850160051c8101916020861061045057601f0160051c0190612182565b84610fe9565b015190508480610f56565b8360005260206000209060005b601f19841681106113445750600193949583601f1981161061132b575b505050811b018255610f6b565b015160001960f88460031b161c1916905584808061131e565b9091602060018192858a015181550193019101611301565b61138890846000526020600020601f840160051c8101916020851061045057601f0160051c0190612182565b84610f3c565b60405162461bcd60e51b815260206004820152601560248201527413595d1859185d1848155492481c995c5d5a5c9959605a1b6044820152606490fd5b60405162461bcd60e51b815260206004820152601760248201527f5573657220616c726561647920726567697374657265640000000000000000006044820152606490fd5b60405162461bcd60e51b8152602060048201526011602482015270496e76616c69642075736572207479706560781b6044820152606490fd5b60405162461bcd60e51b815260206004820152601f60248201527f5265656e7472616e637947756172643a207265656e7472616e742063616c6c006044820152606490fd5b34610645576000366003190112610645576114a7611bb2565b60015460ff8116156114e65760ff19166001557f5db9ee0a495bf2e6ff9c91a7834c1ba4fdd244a5e8aa4e537bd38aeae4b073aa6020604051338152a1005b60405162461bcd60e51b815260206004820152601460248201527314185d5cd8589b194e881b9bdd081c185d5cd95960621b6044820152606490fd5b346106455760403660031901126106455761153b611937565b336001600160a01b03821603611557576106e590600435611fef565b60405162461bcd60e51b815260206004820152602f60248201527f416363657373436f6e74726f6c3a2063616e206f6e6c792072656e6f756e636560448201526e103937b632b9903337b91039b2b63360891b6064820152608490fd5b34610645576020366003190112610645576001600160a01b036115d5611921565b16600052600360205261162d604060002061076f6115f2826119de565b9160ff6001820154169060ff6002820154916116156004600383015492016119de565b9261163860405198899860c08a5260c08a0190611aa7565b956020890190611acc565b60408701528181161515606087015260081c161515608085015283820360a0850152611aa7565b346106455760403660031901126106455760043561167b611937565b816000526000602052611695600160406000200154611ee5565b81600052600060205260406000209060018060a01b0316908160005260205260ff60406000205416156116c457005b8160005260006020526040600020816000526020526040600020600160ff1982541617905533917f2f8788117e7eff1d82e926ec794901d17c78024a50270940304540a733656f0d600080a4005b346106455760203660031901126106455760043560005260006020526020600160406000200154604051908152f35b34610645576020366003190112610645576001600160a01b03611762611921565b1660005260076020526020604060002054604051908152f35b34610645576020366003190112610645576001600160a01b0361179c611921565b16600052600360205260ff60016040600020015416600481101561062f576020906040519015158152f35b34610645576020366003190112610645576001600160a01b036117e8611921565b16600052600460205260a06040600020805490600181015490600281015460046003830154920154926040519485526020850152604084015260608301526080820152f35b3461064557602036600319011261064557611846611921565b6000606060405161185681611987565b828152826020820152826040820152015260018060a01b031660005260056020526080604060002060405161188a81611987565b815491828252600181015460208301908152606060036002840154936040860194855201549301928352604051938452516020840152516040830152516060820152f35b34610645576020366003190112610645576004359063ffffffff60e01b821680920361064557602091637965db0b60e01b8114908115611910575b5015158152f35b6301ffc9a760e01b14905083611909565b600435906001600160a01b038216820361064557565b602435906001600160a01b038216820361064557565b90600182811c9216801561197d575b602083101461196757565b634e487b7160e01b600052602260045260246000fd5b91607f169161195c565b608081019081106001600160401b0382111761045a57604052565b60a081019081106001600160401b0382111761045a57604052565b90601f801991011681019081106001600160401b0382111761045a57604052565b90604051918260008254926119f28461194d565b908184526001948581169081600014611a615750600114611a1e575b5050611a1c925003836119bd565b565b9093915060005260209081600020936000915b818310611a49575050611a1c93508201013880611a0e565b85548884018501529485019487945091830191611a31565b915050611a1c94506020925060ff191682840152151560051b8201013880611a0e565b60005b838110611a975750506000910152565b8181015183820152602001611a87565b90602091611ac081518092818552858086019101611a84565b601f01601f1916010190565b90600482101561062f5752565b81601f82011215610645578035906001600160401b03821161045a5760405192611b0d601f8401601f1916602001856119bd565b8284526020838301011161064557816000926020809301838601378301015290565b9080601f83011215610645578135906001600160401b039283831161045a578260051b60405194602094611b65868401886119bd565b865284808701928401019380851161064557858401925b858410611b8d575050505050505090565b8335838111610645578791611ba7848480948a0101611ad9565b815201930192611b7c565b3360009081527f7d7ffb7a348e1c6a02869081a26547b49160dd3df72d1d75a570eb9b698292ec602090815260408083205490927fa49807205ce4d355092ef5a8a18f56e8913cf4a201fbe287825b095693c217759160ff1615611c165750505050565b611c1f33612074565b91845190611c2c82611987565b60428252848201926060368537825115611d8c5760308453825190600191821015611d8c5790607860218501536041915b818311611d1e57505050611cdc576048610bea938693611cc093611cb1985198899376020b1b1b2b9b9a1b7b73a3937b61d1030b1b1b7bab73a1604d1b8a860152610b91815180928c603789019101611a84565b010360288101875201856119bd565b5192839262461bcd60e51b845260048401526024830190611aa7565b60648486519062461bcd60e51b825280600483015260248201527f537472696e67733a20686578206c656e67746820696e73756666696369656e746044820152fd5b909192600f81166010811015611d78576f181899199a1a9b1b9c1cb0b131b232b360811b901a611d4e8587612063565b5360041c928015611d6457600019019190611c5d565b634e487b7160e01b82526011600452602482fd5b634e487b7160e01b83526032600452602483fd5b634e487b7160e01b81526032600452602490fd5b3360009081527fec33554ee7c70ec5bccf3803da4e5cc79ab96278759be364365ee38f862d37bf602090815260408083205490927f9314fad2def8e56f9df1fa7f30dc3dafd695603f8f7676a295739a12b879d2f69160ff1615611e045750505050565b611e0d33612074565b91845190611e1a82611987565b60428252848201926060368537825115611d8c5760308453825190600191821015611d8c5790607860218501536041915b818311611e9f57505050611cdc576048610bea938693611cc093611cb1985198899376020b1b1b2b9b9a1b7b73a3937b61d1030b1b1b7bab73a1604d1b8a860152610b91815180928c603789019101611a84565b909192600f81166010811015611d78576f181899199a1a9b1b9c1cb0b131b232b360811b901a611ecf8587612063565b5360041c928015611d6457600019019190611e4b565b600090808252602090828252604092838120338252835260ff848220541615611f0e5750505050565b611f1733612074565b91845190611f2482611987565b60428252848201926060368537825115611d8c5760308453825190600191821015611d8c5790607860218501536041915b818311611fa957505050611cdc576048610bea938693611cc093611cb1985198899376020b1b1b2b9b9a1b7b73a3937b61d1030b1b1b7bab73a1604d1b8a860152610b91815180928c603789019101611a84565b909192600f81166010811015611d78576f181899199a1a9b1b9c1cb0b131b232b360811b901a611fd98587612063565b5360041c928015611d6457600019019190611f55565b9060009180835282602052604083209160018060a01b03169182845260205260ff60408420541661201f57505050565b80835282602052604083208284526020526040832060ff1981541690557ff6391f5c32d9c69d2a47ea670b442974b53935d1edc7fd64eb21e047a839171b339380a4565b908151811015610c8b570160200190565b60405190606082018281106001600160401b0382111761045a57604052602a8252602082016040368237825115610c8b57603090538151600190811015610c8b57607860218401536029905b8082116121145750506120d05790565b606460405162461bcd60e51b815260206004820152602060248201527f537472696e67733a20686578206c656e67746820696e73756666696369656e746044820152fd5b9091600f8116601081101561216d576f181899199a1a9b1b9c1cb0b131b232b360811b901a6121438486612063565b5360041c9180156121585760001901906120c0565b60246000634e487b7160e01b81526011600452fd5b60246000634e487b7160e01b81526032600452fd5b81811061218d575050565b60008155600101612182565b60ff600154166121a557565b60405162461bcd60e51b815260206004820152601060248201526f14185d5cd8589b194e881c185d5cd95960821b6044820152606490fd5b156121e457565b60405162461bcd60e51b8152602060048201526013602482015272155cd95c881b9bdd081c9959da5cdd195c9959606a1b6044820152606490fdfea2646970667358221220e027f132b7d6a8186d4e16248cbcb80866594e89e2438aeae0549e48f20f7a7964736f6c634300081300332f8788117e7eff1d82e926ec794901d17c78024a50270940304540a733656f0d",
  "linkReferences": {},
  "deployedLinkReferences": {}
}